S01600005553422D43204578706C6F7265722E7372656343
S214004000202C00200DF6000005F7000005F7000044
S214004010000000000000000000000000000000009B
S21400402000000000000000000000000005F700008F
S214004030000000000000000005F7000005F7000083
S21400404005F7000005F7000005F70000C171000045
S214004050DD68000005F7000005F70000A5C70000B2
S2140040608DE40000B1800000C9800000E1800000FF
S214004070F9800000000000000000000005F70000C6
S21400408005F7000005F70000E9900000FD9000002D
S21400409011910000000000000000000005F700007D
S2140040A005F7000005F700007947010005F7000056
S2140040B00000000010B5064C2378002B07D1054BF6
S2140040C0002B02D0044800E000BF0123237010BD7F
S2140040D0380B00200000000004EB0100084B10B570
S2140040E0002B03D00749084800E000BF07480368D4
S2140040F0002B00D110BD064B002BFBD09847F9E7EC
S214004100000000003C0B002004EB010004EB010063
S2140041100000000080B582B000AF78607B685B0965
S2140041201800BD4602B080BD80B582B000AF786092
S2140041307B68DB01034A944663441800BD4602B020
S21400414080BDC0460044004180B582B000AF7860B4
S2140041507B681800054B984703001800044B9847E7
S21400416003001800BD4602B080BDC04615410000E1
S2140041702941000080B582B000AF78607B681F22BE
S214004180134001229A4013001800BD4602B080BDBD
S21400419080B500AFC046BD4680BD000080B584B087
S2140041A000AF78600A00FB1C1A707B681800184B7A
S2140041B098470300FB60FB1C1B78012B07D17B682C
S2140041C01800144B98470200FB689A600AE0FB1C34
S2140041D01B78002B06D17B6818000E4B9847020010
S2140041E0FB685A60FA6840217B68D3185B181B7816
S2140041F0DBB202221343D8B2FA6840217B68D31898
S2140042005B18021C1A70C046BD4604B080BDC0468E
S214004210494100007541000090B583B000AF78605A
S2140042207B681800084B984703001C6A7B681800D8
S214004230064B9847030023405A1E9341DBB21800F2
S214004240BD4603B090BDC046494100007541000020
S21400425080B500AF024B9847C046BD4680BDC046FD
S2140042609141000080B582B000AF78600A00FB1C68
S2140042701A70FB1C1A787B6811001800024B9847CE
S214004280C046BD4602B080BD9D41000080B582B0EC
S21400429000AF78607B681800034B9847030018004F
S2140042A0BD4602B080BDC0461942000080B500AFD2
S2140042B0044B01221A70BFF35F8F62B6C046BD463C
S2140042C080BDC046D000002080B582B000AF02009E
S2140042D0FB1D1A70064BFA1D127811001F220A40A9
S2140042E0012191400A001A60C046BD4602B080BD5A
S2140042F000E100E080B584B000AF78607B68A02263
S21400430012011A807B6801229A707B680022DA709C
S2140043107B6800221A710F23FB1800221A700EE029
S2140043200F23FB181A787B68023292000021D150C6
S2140043300F23FB181A780F23FB1801321A700F236D
S214004340FB181B78012BEBD9C046BD4604B080BDD8
S21400435080B584B000AF78607B681B68FB60FB6844
S214004360DB69072213405A1E9341DBB21800BD4694
S21400437004B080BD80B582B000AF7860C0467B6870
S2140043801800044B9847031EF9D1C046BD4602B03C
S21400439080BDC0465143000080B582B000AF786053
S2140043A07B6864221A607B681B4A5A607B6800221E
S2140043B09A607B6800221A737B6800221A767B68F4
S2140043C0802292031A617B6801225242DA827B685D
S2140043D0012252429A827B680022DA617B680022C0
S2140043E01A627B682422002199547B6800229A6214
S2140043F07B682C22002199547B682D220021995439
S2140044007B682E22002199547B68D7221A86C046E4
S214004410BD4602B080BDC046480D000080B584B0E1
S21400442000AF78607B681B68BB600023FB607B681E
S2140044301800104B9847BB681B6802221A43BB68DB
S2140044401A600CE0FB680133FB607B68DB881A00AF
S214004450FB689A4203D8BB6810225A8306E0BB6802
S2140044605B8B9BB21A0010231340EBD0BD4604B002
S21400447080BDC0467543000080B584B000AF78604C
S2140044807B681B68FB60FB68DB7BDBB21A00802363
S21400449013405A1E9341DBB21800BD4604B080BDDF
S2140044A080B582B000AF78607B6800221A707B68A7
S2140044B000229A707B6800229A807B6800229A719C
S2140044C07B6800221A817B6800225A707B68002273
S2140044D09A727B680022DA727B6800221A737B6805
S2140044E000229A737B6800225A737B6800221A7433
S2140044F07B6800225A617B6800229A617B680022F2
S2140045001A777B6800221A627B6800225A627B68F0
S21400451000221A857B6800225A857B6800229A85CD
S214004520C046BD4602B080BD80B584B000AF78609E
S2140045307B681B68FB60C0467B681800074B984783
S214004540031EF9D1FB681B889BB2022213439AB262
S214004550FB681A80C046BD4604B080BD79440000A2
S21400456080B582B000AF7860044A7B68D3181B78A9
S2140045705BB21800BD4602B080BDC04600000020F9
S21400458080B582B000AF78600A00FB1C1A707B68AA
S2140045901B681800224B984703001800214B9847C9
S2140045A003001800204B9847FB1C1B78022B0BD1EE
S2140045B07B685B7E10221343DAB27B685A767B6890
S2140045C01B6810225A7326E0FB1C1B78032B0BD1AA
S2140045D07B685B7E20221343DAB27B685A767B6860
S2140045E01B6820225A7316E07B685B7E5AB2FB1C5F
S2140045F01B78012199400B005BB213435BB2DAB221
S2140046007B685A767B681B68FA1C127801219140F9
S2140046100A00D2B25A73C046BD4602B080BDC0463C
S214004620A192000061450000C942000080B584B038
S21400463000AF78600F4A7B681B01D31808331B68ED
S2140046401B687A68100098470300FB60FB68002B25
S21400465001D0FB6809E0084B002B05D07B681800EA
S214004660054B98470300FB60FB681800BD4604B086
S21400467080BDC04640D901000000000080B584B06F
S21400468000AFF860B9607A60074AFB681B01D31870
S21400469008331B689B687A68B968F868984703000F
S2140046A01800BD4604B080BD40D9010080B582B078
S2140046B000AF7860064A7B681B01D31808331B6876
S2140046C01B6B7A6810009847C046BD4602B080BD96
S2140046D040D9010080B500AF074B01221A71064B86
S2140046E05B889AB2044B1B88D3189AB2024B5A8046
S2140046F0C046BD4680BDC046A81B002080B500AFA2
S2140047000649074B02221800064B9847044B022125
S2140047101800054B9847C046BD4680BDD5460000EC
S214004720DC120020E16F00008D70000080B584B0C0
S21400473000AF3B0018000D4B98473B00802252000C
S2140047401A803B0000229A703B0001221A713A0040
S2140047500749084B1800084B9847064B1800074BAC
S2140047609847C046BD4604B080BDC046F54200002E
S21400477000140040DC120020816E00006D6C00000A
S21400478080B500AF054B9847054B9847054B14215D
S2140047901800054B9847C046BD4680BD2D47000013
S2140047A0FD460000DC1200209D6F000080B500AFC3
S2140047B0234B9847234B01221A70BFF35F8F62B6D4
S2140047C0214B9847214B9847214B9847214B9847B8
S2140047D0214B9847214B9847214B9847214B9847A8
S2140047E03220214B98470020204B984732201E4B02
S2140047F0984700201E4B984732201B4B98470021B5
S21400480013201C4B98471C4B98471C4B984732204C
S214004810154B98471A4B984713201A4B9847030096
S2140048201A0001235340DBB2002B02D00020164BA7
S21400483098470020154B984702200B4B9847E9E70E
S214004840D9F50000D000002051420000B5E5000078
S21400485081470000253B0100AD4200009148000062
S2140048605D4A0000C14A00003DE600002D460000FB
S214004870791B010065420000955E00005D4B00005C
S214004880D13B01008D420000AD460000551C0100E2
S214004890B0B500AF214B9847A820214B98473F2042
S2140048A01F4B9847DA201E4B984712201C4B984700
S2140048B020201B4B98470120194B98478120184B06
S2140048C09847CF20164B9847A620154B984780232D
S2140048D0DA00144B00211800134B98478023DA00A7
S2140048E0104B11001800114B9847114911484023EE
S2140048F08022114CA0470F4B1800104B9847104BC6
S2140049001800104B98478023DA00064B1100180059
S214004910064B9847C046BD46B0BDC046A5500000F1
S2140049205D510000F4120020ED950100B151000029
S21400493049490000F816002049F7000071F8000009
S2140049400CE301008DF8000080B582B000AF3A603D
S214004950BB1D021C1A803B1D0A1C1A80BB1D0022B0
S2140049609B5E7F2B00DD71E03B1D00229B5E3F2B94
S2140049706CDCBB1D00229B5E002B67DB3B1D002210
S2140049809B5E002B62DB3B68002B2ED0BB1D0022FB
S2140049909B5EDB011B113A1D0021525ED21012B243
S2140049A09A18BB1D00215B5EDB011B11391D002020
S2140049B0095EC91009B25B182649CB5C59B23B1D8B
S2140049C000201B5E2448034004D5013B08204042DB
S2140049D0034301331BB21800012383405BB20B4331
S2140049E05BB2D9B21B4B995431E0BB1D00229B5ED3
S2140049F0DB011B113A1D0021525ED21012B29A182A
S214004A00BB1D00215B5EDB011B11391D0020095E0A
S214004A10C91009B25B180F49CB5C59B23B1D002088
S214004A201B5E0D48034004D5013B0820404203436B
S214004A3001331BB21800012383405BB2DB435BB239
S214004A400B405BB2D9B2034B995400E0C046BD465A
S214004A5002B080BDF41200200700008080B58EB042
S214004A6000AF3B1D18000E4B98473B1D0D4ADA82DF
S214004A703B1DC82252001A603B1D0B4ADA613B1DE3
S214004A800A4A1A623A1D0A490A4B18000A4B984706
S214004A90084B1800094B9847C046BD460EB080BD6F
S214004AA099430000102700000200160002001700BD
S214004AB00014004254170020E97600001D44000050
S214004AC080B58EB000AF3B1D1800154B98473B1DB8
S214004AD004221A703B1D08229A703B1D00229A8001
S214004AE03B1D01225A703A1D0E490F4B18000F4B02
S214004AF098470F4B00221A600B4B18000D4B984737
S214004B000D49094B022218000C4B9847064B022110
S214004B1018000B4B9847C046BD460EB080BDC04639
S214004B20A14400000030004260170020E992000017
S214004B30F416002029450000454B00007590000043
S214004B408145000080B500AF034B1B685A1C024B22
S214004B501A60C046BD4680BDF416002090B5C3B0AE
S214004B6000AF00237B6000233B603A003B1D19002A
S214004B7000202B4B98470823FB182A4A13CA13C356
S214004B801188198092789A700823FB181A00082159
S214004B900020254B98477B68052B02D03B68052BE9
S214004BA009D10823FB18214A13CA13C311681960D8
S214004BB092889A8022E07B68062B02D03B68062B00
S214004BC007D10823FB181A4A13CA13C312781A709F
S214004BD014E07B68072B02D03B68072B07D108231D
S214004BE0FB18144A13CA13C312781A7006E0082377
S214004BF0FB18114A13CA13C312881A800823FB181D
S214004C001A0010210020084B98478023DA000B4B2F
S214004C10110018000A4B9847C046BD4643B090BDE9
S214004C207D46000050D90100C5F8000060D901009B
S214004C3074D9010084D9010094D90100F41200202F
S214004C40B151000080B584B000AF0200FB1D1A70A1
S214004C500F23FB18FA1D1278D2091A700E23FB18C0
S214004C60FA1D127852091A700D4BBB600F23FB1801
S214004C701B78002B0FD10F23FB181B789B001022EC
S214004C809446BC446344083B1A680E23FB181B7802
S214004C90DB01D31800E000231800BD4604B080BD39
S214004CA00044004180B582B000AF0200FB1D1A70C0
S214004CB0FB1D1B781800034B984703001800BD46E1
S214004CC002B080BD454C000080B582B000AF786071
S214004CD07B6800221A707B6801225A707B6800226B
S214004CE09A70C046BD4602B080BD000080B584B054
S214004CF000AF0200FB1D1A70BB1D0A1C1A70FB1DBC
S214004D001B7818000D4B98470300FB60FB1D1B78B3
S214004D101F22134001229A401300BB60BB1D1B7864
S214004D20002B03D0FB68BA689A6102E0FB68BA6899
S214004D305A61C046BD4604B080BDC046A54C0000C2
S214004D4080B582B000AF0200FB1D1A70064BFA1D3C
S214004D50127811001F220A40012191400A001A60B1
S214004D60C046BD4602B080BD00E100E080B584B01C
S214004D7000AF78607B681B68FB60FB68DB695A1EC7
S214004D809341DBB21800BD4604B080BD80B582B04A
S214004D9000AF78607B6801221A707B6800225A6038
S214004DA07B6800229A607B68C0229203DA607B6888
S214004DB000221A747B6800225A747B6801229A7457
S214004DC07B680122DA747B6800221A757B682422CD
S214004DD0002199547B6818330C22002118000A4BD6
S214004DE098477B68094A9A617B6800229A627B68CA
S214004DF00022DA627B6800221A637B6800225A630C
S214004E00C046BD4602B080BDED950100A0860100FB
S214004E1080B582B000AF78607B680A221A707B6823
S214004E2000225A707B6800229A70C046BD4602B0C7
S214004E3080BD000080B584B000AF786039603B6804
S214004E401A787B681A703B685A787B685A703B6899
S214004E509A787B689A700C23FB1818000B4B9847BF
S214004E600C23FB1801221A707B681B780C22BA18D8
S214004E7011001800064B98477B681B780121180024
S214004E80044B9847C046BD4604B080BDC94C0000E0
S214004E9095E60000ED4C000080B584B000AF786069
S214004EA07B681B68FB607B681B6818000B4B984789
S214004EB0030018000A4B9847C0467B681800094B49
S214004EC09847031EF9D1FB681B6802221A43FB6849
S214004ED01A60C046BD4604B080BDC046658000006E
S214004EE0414D00006D4D000080B582B000AF786087
S214004EF07B68002B0CD0084B7A685A60064B002261
S214004F009A60C046044B1A6880235B021340F9D0AF
S214004F10C046BD4602B080BD10E000E080B582B05D
S214004F2000AF0020104B98470200104B10491000AD
S214004F30984703001A0013009B009B185B007B60D9
S214004F4000211B200B4B98477B6818000A4B98479C
S214004F5001211B20074B98477B681800064B984793
S214004F60C046BD4602B080BDC1F100003D750100DF
S214004F7040420F00ED4C0000E94E000080B500AF47
S214004F80AF20024B9847C046BD4680BD5D5100002D
S214004F9080B582B000AF0200FB1D1A708120064B60
S214004FA09847FB1D1B781800034B9847FB1D1B7882
S214004FB01800BD4602B080BD5D51000080B500AF50
S214004FC0A620024B9847C046BD4680BD5D510000F6
S214004FD080B590B000AF3B1D1800254B98473B1D91
S214004FE012221A703A1D234B11001800224B9847C4
S214004FF00823FB181800214B98470823FB18C022EB
S2140050009203DA600823FB181D4A9A620823FB18ED
S2140050101C4ADA620823FB18012252421A6308234C
S214005020FB18012252425A630823FB18164A9A615B
S2140050300823FA181549164B1800164B9847144BB8
S2140050401800154B98473B001800144B98473B0038
S21400505001221A703B0019000E20114B98473B00A6
S21400506019001B200E4B9847C046BD4610B080BDA9
S214005070114E0000B8170020354E00008D4D000080
S2140050800200100002001100002D3101000C004249
S2140050907C17002059860000994E0000C94C00007D
S2140050A095E6000080B500AF244B9847244B984700
S2140050B0244B984701211B20234B9847A820234BBD
S2140050C098471F20214B9847D320204B9847002015
S2140050D01E4B984740201D4B9847A1201B4B9847D6
S2140050E0C8201A4B9847DA20184B98470220174BCF
S2140050F098478F20164B9847A420144B9847154B7B
S2140051009847D520114B98478020104B98478D2004
S2140051100E4B984714200D4B9847DB200B4B9847B7
S21400512040200A4B9847D920084B9847F120074B58
S2140051309847094B9847C046BD4680BDB5E5000078
S214005140D14F00001D4F0000ED4C00005D510000E7
S214005150914F0000BD4F00007D4F000080B582B02B
S21400516000AF0200FB1D1A700C490D4B01221800FF
S2140051700C4B984700210E200B4B9847F91D084B07
S21400518001221800094B98470449054B00221800D5
S214005190044B9847C046BD4602B080BDB8170020F5
S2140051A07C170020FD870000ED4C0000ED88000015
S2140051B080B582B000AF78600A00BB1C1A800D492B
S2140051C00D4B012218000D4B984701210E200C4B69
S2140051D09847BB1C1A887968074B1800094B9847F4
S2140051E00449054B00221800044B9847C046BD46AC
S2140051F002B080BDB81700207C170020FD87000095
S214005200ED4C0000ED88000080B582B000AFEFF3F3
S21400521010833B603B685A425341DBB27B6072B6F8
S214005220BFF35F8F034B00221A707B681800BD46E1
S21400523002B080BDD000002080B582B000AF78609C
S2140052407B685A1E9341DBB21800BD4602B080BD93
S21400525080B582B000AF78607B681800064B984730
S214005260031E05D0054B01221A70BFF35F8F62B68E
S214005270C046BD4602B080BD39520000D0000020B6
S21400528090B583B000AFBB1D00221A70504B0022B1
S2140052901A70BB1D1A784F4B52000021D152BB1D0D
S2140052A01A784D4913009B009B185B00A1225A54A4
S2140052B0BB1D1A78484913009B009B185B00CB184F
S2140052C0013320221A70BB1D1A78434913009B0035
S2140052D09B185B00CB18023300221A80BB1D1B787C
S2140052E0002B03D1FB1D00221A7003E0FB1D0022D9
S2140052F01A70C046BB1D1A78FB1D1B7898B236493B
S21400530013009B009B185B00CB180433021C1A800A
S214005310BB1D1A78304913009B009B185B00CB1806
S214005320063302221A80BB1D1A782B4913009B00F5
S2140053309B185B00CB18083300221A80BB1D197817
S214005340264A0B00DB005B1A995C0020014099544A
S214005350D118487800242040041C3E2040422043B8
S2140053604870D118887800242040041C012020436F
S2140053708870D318DA7800210A40DA70BB1D1A78D4
S21400538016491300DB009B1ACB18043300221A7050
S214005390BB1D1A7811491300DB009B1ACB18053386
S2140053A000221A70BB1D1A780C491300DB009B1AEA
S2140053B0CB18063308221A70054B1B78DBB2013374
S2140053C0DAB2034B1A7001231800BD4603B090BD35
S2140053D06A0B00205C0B0020600B0020540B0020A2
S2140053E080B582B000AFFB1D00221A70354B00223C
S2140053F01A70FB1D1B78344A0021D154FB1D1B7804
S214005400324A0021D154FB1D1B78314A0021D15469
S214005410FB1D1A782F4B92000021D152FB1D1B78E2
S2140054202C4A9B00D318023300221A80FB1D1A78E0
S214005430294B52000021D152FB1D1B781800274B28
S2140054409847FB1D1B78264A0021D154FB1D1B786C
S214005450244A0021D154FB1D1A78234B92000021C8
S214005460D152FB1D1B78204A9B00D3180233002222
S2140054701A80FB1D1A781D4B52000021D152FB1DCD
S2140054801B7818001A4B984703001A000123534054
S214005490DBB2002B01D000230FE00A4B1B78DBB2F7
S2140054A00133DAB2074B1A70064B1B78DBB2012BBE
S2140054B002D1104B01221A7001231800BD4602B01B
S2140054C080BDC0466B0B00208C0C0020900C00208A
S2140054D0840C0020800C0020880C00203559000029
S2140054E0FC0B0020F40B0020F00B0020F80B002033
S2140054F0995600006C0B002080B500AF044B1B785B
S214005500DBB2013BDAB2024B1A70C046BD4680BD24
S2140055106A0B002080B582B000AF094B1B78DBB267
S214005520013BDAB2064B1A70FB1D054A12781A7058
S214005530044B00221A70C046BD4602B080BDC0466D
S2140055406B0B00206C0B002090B583B000AFFC1DE9
S2140055502C4B9847030023702B4B1B785BB2002B19
S2140055601EDA294B1B781A0060231340202B17D114
S214005570254B5B78212B13D1234BDB88072B01D0DF
S21400558000233AE0FB1D1A781300DB009B1A1F4A23
S2140055909A181D4B9A601C4B07229A8101232CE017
S2140055A0194B1B785BB2002B26DB174B1B781A00B7
S2140055B060231340202B1FD1134B5B78202B02D087
S2140055C0222B17D018E0104BDB88072B01D00023C6
S2140055D013E00D4B0E4A1A61FB1D1A781300DB0010
S2140055E09B1A0A4A9A18084B9A60074B07229A8118
S2140055F0012302E0012300E000231800BD4603B0AB
S21400560090BDC04649560000501A0020540B00209A
S2140056107D56000080B500AF00231800BD4680BD53
S21400562080B500AF00231800BD4680BD80B500AF32
S214005630034B1B781800034B9847C046BD4680BDF9
S214005640910C00203559000080B582B000AF0A4B9F
S2140056509B881A00FF23134003D1FB1D00221A70FB
S21400566003E0FB1D00221A70C046FB1D1B781800C5
S214005670BD4602B080BDC046501A002090B583B02B
S21400568000AFFC1D034B984703002370C046BD4681
S21400569003B090BD4956000090B589B002AF020035
S2140056A0FB1D1A70FB1D00221A70384B984703002A
S2140056B03B61FB1D1A780F23FB1835498A5C1A706C
S2140056C0FB1D1B78334AD35CDBB2002B12D1FB1DCB
S2140056D01A78314B5200D35A9AB2FB1D18780F2312
S2140056E0FB1819782D4B400041184900CB5A9BB245
S2140056F09A4205D23B691800294B9847002340E0A0
S214005700FB1D1A78244B52000021D152FB1D1B783A
S2140057100F22BA18127851424A41D2B211001C4ADE
S214005720D154FB1D1B781B4A0121D1543B6918003C
S2140057301B4B9847FB1D1B7818001A4B9847FB1D00
S2140057401B78002B04D11723FB1802221A7004E0E2
S2140057501723FB1802221A70C046FB1D1A780F2367
S214005760FB181B785200D3189A010F4BD218172338
S214005770FB1818780D4B0093402301210C4CA047D2
S21400578003001800BD4607B090BDC0460952000091
S214005790F40B0020FC0B0020F80B0020F00B002080
S2140057A051520000D95B0000700B0020B557000076
S2140057B061A2000090B587B002AF39601100FB1DF2
S2140057C0021C1A70BB1D0A1C1A70BB1D1B78022B0C
S2140057D004D10F23FB1800221A7004E00F23FB18D5
S2140057E000221A70C046FB1D1B78002B3DD10F23EC
S2140057F0FB181B781F4AD35CDBB25A425341DAB21D
S2140058000E23FB181A703B68002B13D10F23FB18CE
S2140058101A780E23FB181B785200D3189A01164BE1
S214005820D218BB1D1878154B009340230121144C49
S214005830A0471BE00F23FB1819780E23FB181A78D5
S2140058403B6898B20F4B49008A185200011CD1528F
S2140058500F23FB181B780C4A0021D1540F23FB188A
S2140058601B781800094B984700E0C046BD4605B0B7
S21400587090BDC046F40B0020700B0020B55700000A
S21400588061A20000F00B0020FC0B002099560000DF
S21400589080B584B000AF39601100FB1D021C1A7081
S2140058A0BB1D0A1C1A70BB1D1B78812B04D10F234D
S2140058B0FB1800221A7004E00F23FB1800221A704F
S2140058C0C046FB1D1B78002B25D10F23FB181A782A
S2140058D00F23FB181B781249CB5CDBB259424B41B5
S2140058E0DBB219000F4B5200521852000021D15261
S2140058F00F23FB181B780C4A0021D1540F23FB18EA
S2140059001B780A4A0021D1540F23FB181B78180075
S214005910074B984700E0C046BD4604B080BDC04671
S214005920840C0020800C0020900C00208C0C0020A2
S2140059303559000090B589B002AF0200FB1D1A7001
S214005940FB1D00221A70FB1D1B78764AD35CDBB267
S214005950002B00D0DFE0744B9847031E0AD0FB1DD7
S2140059601A78724B5200D45A714B984703009C42E7
S2140059700BD1D3E0FB1D1A786C4B5200D45A6D4BFA
S214005980984703009C4200D1C7E06B4B9847030042
S2140059903B61FB1D1A781723FB1868498A5C1A704E
S2140059A0FB1D19781723FB181A78654B49008A18CF
S2140059B05200D35A002B20D1624B1B8801339AB277
S2140059C0604B1A80584B984703001A000123534037
S2140059D0DBB2002B03D05B4B1B88632B08D9524BE2
S2140059E09847031E09D0574B1B88574A934204D842
S2140059F03B691800554B984790E0524B00221A809E
S214005A00FB1D1B78524AD35CDBB201225340DBB24B
S214005A10002B0BD0FB1D1B781722BA1812785142A8
S214005A204A41D2B21100454AD15408E01723FB1868
S214005A301B785A425341DAB21723FB181A70FB1D23
S214005A401B78384A0121D1543B6918003F4B9847D0
S214005A50FB1D19781723FB181A78394B49008A184A
S214005A605200D25A0F23FB18403A511E8A411A7030
S214005A700F23FB181B78002B17D02B4B9847031EC1
S214005A8009D0FB1D1C782A4B984703001900274BAA
S214005A906200D1520FE0FB1D1C78264B984703008E
S214005AA01900224B6200D15205E0FB1D1A781F4BED
S214005AB052000021D152FB1D1B78002B04D1162367
S214005AC0FB1881221A7004E01623FB1881221A7034
S214005AD0C046FB1D1A781723FB181B785200D318F4
S214005AE09A011C4BD418FB1D19781723FB181A783B
S214005AF0134B49008A185200D35A1A000F23FB187A
S214005B0019781623FB181878134B009313002200FD
S214005B10124CA04702E0C04600E0C046BD4607B0B3
S214005B2090BDC0468C0C0020B99E0000880C00205A
S214005B30E19E0000C59E000009520000840C002073
S214005B40800C0020920C00201F0300005152000021
S214005B50900C0020000C00209158000061A200006C
S214005B6080B586B000AF0200FB1D1A70FB1D002238
S214005B701A70144B984703007B61FB1D197812239B
S214005B80FB18114A49008A5A1A80FB1D1A78FB1D19
S214005B901B780E49CB5CDBB219000D4B5200521835
S214005BA05200D35A9BB21A001223FB181B88D31A32
S214005BB0FB607B691800074B9847FB681800BD46DA
S214005BC006B080BD09520000F80B0020F40B002040
S214005BD0F00B00205152000080B582B000AF0200EA
S214005BE0FB1D1A70FB1D1B781800054B9847030019
S214005BF05A1E9341DBB21800BD4602B080BDC046B7
S214005C00615B000080B500AF074B1B681A68064B47
S214005C101B681B689978DB781B020B439BB2D31872
S214005C201800BD4680BDC046A00C002080B584B0DC
S214005C3000AF78600A00FB1C1A70144B98470300EC
S214005C40FB607B681B781A007B689B187B6011E002
S214005C507B685B78042B12D07B685B78FA1C127822
S214005C609A4201D17B680CE07B681B781A007B683F
S214005C709B187B60FA687B689A42E9D800E0C046C9
S214005C8000231800BD4604B080BDC046055C000079
S214005C9080B584B000AF0200FB1D1A70BB1D0A1C45
S214005CA01A70204B1B78002B01D1002336E01E4BC8
S214005CB01B681B681B79FA1D12789A4201D30023D1
S214005CC02CE0194B1B681A68184B1A60184B98473B
S214005CD00300FB601CE0154B1B685B78042B0FD1A0
S214005CE0124B1B689B78FA1D12789A4208D10F4B0C
S214005CF01B68DB78BA1D12789A4201D101230DE0A9
S214005D000A4B1A68094B1B681B78D218074B1A6097
S214005D10064B1B68FA689A42DDD800231800BD4679
S214005D2004B080BD9C0C0020A00C0020A40C002019
S214005D30055C000080B584B000AF0200FB1D1A7041
S214005D40FB1D1B7800211800214B984703001A0002
S214005D5001235340DBB2002B01D0002334E01D4B5F
S214005D601B685A68FB1D1B789B00D3181B68BB601A
S214005D70BB68DB68984703001A00FB1D1B78110000
S214005D801800134B984703001A0001235340DBB258
S214005D90002B01D0002317E00F4B1B68FB60FB684D
S214005DA0052118000D4B98470300FB60FB68002B8D
S214005DB005D0FB689B781800094B9847EFE7C0466C
S214005DC0BB685B68984701231800BD4604B080BDD9
S214005DD0915C0000A00C0020A40C00202D5C0000AC
S214005DE0FD9E000080B584B000AF0200FB1D1A7057
S214005DF0BB1D0A1C1A70BB1D1A78FB1D1B781100F0
S214005E0018001F4B984703001A0001235340DBB2CB
S214005E10002B01D000232EE01A4B1B68FB60FB68AA
S214005E2005211800184B98470300FB60FB68002B01
S214005E3015D0FB689878FB68D978FB681A795B7987
S214005E401B0213439BB21A00104B984703001A001C
S214005E5001235340DBB2002BE1D000230BE0C04609
S214005E600B4B1B685A68FB1D1B789B00D3181B68DE
S214005E701B68984703001800BD4604B080BDC046A6
S214005E80915C0000A40C00202D5C0000899F00009F
S214005E90A00C002080B500AF024B9847C046BD4618
S214005EA080BDC0465DAD000080B582B000AF124B2D
S214005EB01B78002B15D0FB1D00221A7009E0FB1D75
S214005EC01B7818000D4B9847FB1D1A78FB1D0132F6
S214005ED01A700B4B1B681B681B79FA1D12789A42C6
S214005EE0EDD3054B00221A70064B01221A80C046DD
S214005EF0BD4602B080BDC0469C0C0020355D00004B
S214005F00A00C0020940C002080B582B000AF174B88
S214005F101B78002B25D0FB1D00221A7019E0144BAD
S214005F201B685A68FB1D1B789B00D3181B681B69EF
S214005F30002B09D00E4B1B685A68FB1D1B789B0074
S214005F40D3181B681B699847FB1D1A78FB1D013286
S214005F501A70074B1B681B681B79FA1D12789A4249
S214005F60DDD3C046BD4602B080BDC0469C0C0020B6
S214005F70A00C002080B500AF074BDB88022B01D0B9
S214005F80002305E0054B02211800054B9847012326
S214005F901800BD4680BDC046501A0020940C002054
S214005FA091A5000080B500AF0C4BDB88022B01D01A
S214005FB000230FE0094B9B88DBB21800084B98477C
S214005FC003009AB2074B1A80064B02211800064BB4
S214005FD0984701231800BD4680BDC046501A0020D1
S214005FE031A10000A80C002091A5000080B500AFEC
S214005FF00B4BDB88002B01D000230DE0084B5B88A1
S214006000012B08D1074B1B88022293439AB2054BFB
S2140060101A80012300E000231800BD4680BDC0465C
S214006020501A0020940C002080B500AF0A4BDB8885
S214006030002B01D000230CE0074B5B88002B07D118
S214006040054B9B88DBB21800044B9847030000E022
S21400605000231800BD4680BD501A0020B5A10000E0
S21400606080B500AF084BDB88002B01D0002307E08B
S214006070054B5B88012B02D0C046002300E00023BE
S2140060801800BD4680BDC046501A002080B500AF3F
S2140060900D4BDB88002B01D0002312E00A4B5B88F7
S2140060A0002B0DD1084B9B88DBB21800074B984796
S2140060B0054B9B88DBB21800054B9847030000E0B1
S2140060C000231800BD4680BD501A0020499E0000DF
S2140060D05DA1000080B500AF054B5B88DBB27F2278
S2140060E01340DBB21800034B9847C046BD4680BD40
S2140060F0501A002049A5000080B500AF064BDB888B
S214006100002B01D0002303E0034B044A1A6101234D
S2140061101800BD4680BDC046501A0020D56000005D
S21400612080B582B000AFBB1D00221A70224B5B8880
S2140061301A00FF2313400AD1204B04211800204BDD
S2140061409847C046BB1D1B78002B2FD001E00023CC
S2140061502DE0FB1D00221A7012E0FB1D1B78FA1DB5
S214006160127839688A18127891B2164A5B00D318EA
S21400617002330A1C1A80FB1D1A78FB1D01321A70A6
S214006180FA1DBB1D12781B789A42E6D3BB1D1B78FE
S2140061900133DBB2DB18DAB20A4B1A70094B1B78F4
S2140061A09AB2084B11001800054B984701231800B7
S2140061B0BD4602B080BDC046501A0020AC0000208C
S2140061C091A50000B000002080B582B000AF394B2A
S2140061D05A88FB1D1A70374B5B881B0A9BB2DBB2D2
S2140061E0022B13D002DC012B05D051E0032B44D048
S2140061F00F2B2FD04CE0304B1A682F4B1B681B78A8
S2140062009BB2190010002D4B984744E02A4B1B68A0
S2140062105B7CFA1D12789A4201D3002346E0264B97
S2140062205A68FB1D1B78DB00D3181868224B5A6887
S214006230FB1D1B78DB00D3181B689A78DB781B02E3
S21400624013439BB219001D4B98471A4B9B680222BA
S2140062505A7020E0184B9B68002B01D1002325E0E4
S214006260154B9868144B9B689A78DB781B0213438F
S2140062709BB21900114B98470DE0114B984703004D
S2140062801A0001235340DBB2002B03D000230DE09D
S21400629000230BE0C046074BDA88064B9B899A42E0
S2140062A003D2044BDA88034B9A8101231800BD46BB
S2140062B002B080BD501A0020A000002091A500006A
S2140062C02161000080B500AF074BDB88012B01D0B1
S2140062D0002305E0054B01211800054B98470123D4
S2140062E01800BD4680BDC046501A00209C0C0020F9
S2140062F091A5000080B582B000AF2A4BDB88002B4A
S21400630001D000234AE0284B9847031E01D1002302
S21400631044E0244B5B881A00FF231A40234B1B687B
S2140063205B7C9A4201DD002338E0214B98471D4BE9
S2140063305B88DAB21F4B1A701E4B1B78002B01D1FC
S21400634001232BE0194B5A681A4B1B781A498C46C6
S2140063506344DB00D218194B1A60FB1D00221A702A
S21400636013E0FB1D1B7800211800154B984703000F
S2140063701A0001235340DBB2002B01D000230DE0AE
S214006380FB1D1A78FB1D01321A700C4B1B681B682C
S2140063901B79FA1D12789A42E3D301231800BD46F2
S2140063A002B080BD501A002075A50000A000002095
S2140063B0A95E00009C0C0020FFFFFF1FA00C002021
S2140063C0E55D000080B582B000AF214BDB88012B75
S2140063D001D0002338E01F4B1B78002B01D100238F
S2140063E032E01B4B9A88FB1D1A701B4B1B681B6800
S2140063F01B79FA1D12789A4201D3002324E0FB1D74
S2140064001B7800211800154B984703001A0001233B
S2140064105340DBB2002B01D0002315E00E4B1B6867
S2140064205A68FB1D1B789B00D3181B683B603B68B3
S214006430DB68984703001A00094B1A70084B0121C5
S2140064401800084B984701231800BD4602B080BDCF
S214006450501A00209C0C0020A00C0020915C00002C
S214006460980C002091A5000080B582B000AF174BB5
S214006470DB88002B01D0002324E0154B1B78002B73
S21400648001D100231EE0114B9A88FB1D1A700F4B9A
S2140064905A88BB1D1A70FB1D1B7818000D4B9847B9
S2140064A003001A0001235340DBB2002B01D0002367
S2140064B008E0BB1D1A78FB1D1B7811001800064B60
S2140064C0984703001800BD4602B080BD501A002051
S2140064D09C0C0020355D0000E55D000080B500AF37
S2140064E0474B1B785BB2002B40DA454BDB88002B12
S2140064F001D1002381E0424B1B781A001F23134072
S21400650014D13F4B5B78062B08D0082B0AD0002B03
S21400651000D00BE03B4B984703006EE03A4B9847A1
S21400652003006AE0394B9847030066E0344B1B785B
S2140065301A001F231340012B08D1314B5B780A2B1E
S21400654000D003E0324B9847030056E02C4B1B78F4
S2140065501A001F231340022B4ED1294B5B78002BC9
S21400656000D049E02B4B9847030046E0244B1B78AD
S2140065701A001F23134019D1214B5B78092B14D81E
S2140065809A00254BD3181B689F46244B9847030058
S21400659033E0234B984703002FE0224B9847030035
S2140065A02BE0214B9847030027E0C046144B1B788E
S2140065B01A001F231340012B08D1114B5B780B2BBD
S2140065C000D003E0194B9847030016E00C4B1B78ED
S2140065D01A001F231340022B0ED1094B5B78012BA8
S2140065E002D0032B04D007E0114B9847030004E0C9
S2140065F0104B9847030000E000231800BD4680BDFE
S214006600501A0020755F0000C9610000C5620000D6
S214006610C5630000A55F0000A4D90100F960000072
S214006620ED5F000061600000F56200006964000034
S214006630296000008D60000080B582B000AF244B5A
S2140066401B78002B01D100233DE0224B9A88FB1DCE
S2140066501A70214B1B681B681B79FA1D12789A4228
S21400666001D300232FE0FB1D1B78002118001B4BD5
S214006670984703001A0001235340DBB2002B01D0D9
S214006680002320E0144B1B685A68FB1D1B789B00F8
S214006690D3181B683B603B68DB68984703001A000A
S2140066A0FB1D1B78110018000C4B984703001A00BE
S2140066B001235340DBB2002B01D0002303E03B68EC
S2140066C09B68984703001800BD4602B080BDC046D0
S2140066D09C0C0020501A0020A00C0020915C0000AA
S2140066E080B582B000AF224B1B78002B01D100236F
S2140066F039E0204B9A88FB1D1A70FB1D00221A7089
S21400670028E01D4B1B685A68FB1D1B789B00D3189E
S2140067101B683B603B68DB68984703001A00FB1D5C
S2140067201B7811001800154B984703001A00012328
S2140067305340DBB2002B01D0002314E03B689B687B
S2140067409847031E01D001230DE0FB1D1A78FB1DA0
S21400675001321A70084B1B681B681B79FA1D1278E9
S2140067609A42CED300231800BD4602B080BDC04674
S2140067709C0C0020501A0020A00C0020915C000009
S21400678080B500AF1E4B00229A811D4B00221A6175
S2140067901B4B00225A611A4B1B785BB2002B05DAA2
S2140067A0174BDB88002B01D1002326E0144B1B7807
S2140067B01A006023134005D1124B9847031E01D0E0
S2140067C001231AE00E4B1B781A001F231340012BDF
S2140067D005D10D4B9847031E01D001230DE0084B51
S2140067E01B781A001F231340022B05D1074B98472E
S2140067F0031E01D0012300E000231800BD4680BD23
S214006800501A0020DD64000039660000E1660000D2
S21400681080B584B000AF0200FB1D1A700F23FB1872
S214006820FA1D127852091A700F23FB181B78002BDA
S2140068300CD1094BBB600F23FB181B789B00102262
S2140068409446BC446344083B1B6800E000231800E1
S214006850BD4604B080BDC0460018004080B584B078
S21400686000AF0200FB1D1A70FB1D1B7818000B4BB7
S21400687098470300FB60FB1D1B781F221340012274
S2140068809A401300BB60FB681B69BA6813405A1E27
S2140068909341DBB21800BD4604B080BD116800000D
S2140068A080B584B000AF0200FB1D1A70FB1D1B787C
S2140068B01800094B98470300FB60FB1D1B781F223E
S2140068C0134001229A401300BB60FB68BA681A6145
S2140068D0C046BD4604B080BD1168000080B500AF5C
S2140068E0154B00221A7020E0134B1B781800134B30
S2140068F09847031E13D0104B1B781800104B984770
S2140069000D4B1B781A000F4B9200D358002B06D065
S214006910094B1B781A000B4B9200D3589847064B2E
S2140069201B780133DAB2044B1A70034B1B780F2B1B
S214006930DAD9C046BD4680BDC11700205D6800009C
S214006940A1680000C417002080B582B000AF786050
S2140069507B6800221A70C046BD4602B080BD0000AB
S21400696080B582B000AF02003960FB1D1A70FB1DB7
S2140069701B78012B0AD0022B0FD0002B14D10E4B04
S2140069800D4A91693A680A439A610FE00A4B0A4A2F
S214006990D1693A680A43DA6108E0074B064A116A89
S2140069A03A680A431A6201E0172300E00023180041
S2140069B0BD4602B080BDC0460004004080B582B02F
S2140069C000AF0200FB1D1A70064BFA1D127811006C
S2140069D01F220A40012191400A001A60C046BD46A7
S2140069E002B080BD00E100E080B582B000AF0F4B82
S2140069F03B6000237B6011E07B689B000822944686
S214006A00BC446344083B1B685B78DBB25BB2002B7C
S214006A1001DA012306E07B6801337B607B68002B8C
S214006A20EAD000231800BD4602B080BD0018004022
S214006A3080B584B000AF2D4B7B60402100202C4BEE
S214006A4098473B0018002B4B98473B0000221A70D3
S214006A503B0019000520284B98470520274B9847F0
S214006A600023FB6018E0FB689B0010229446BC44A1
S214006A7063440C3B1A68FB689B0010218C46BC44A0
S214006A8063440C3B1B681B78DBB201210B43DBB273
S214006A901370FB680133FB60FB68002BE3D0C04635
S214006AA0174B9847031EFBD10B23FB1800221A70C6
S214006AB00DE00B23FB181A78124B92000021D150E0
S214006AC00B23FB181A780B23FB1801321A700B23C2
S214006AD0FB181B780F2BECD904200B4B98470B4B5D
S214006AE09847C046BD4604B080BDC046001800406A
S214006AF0616900004969000099F20000DDF20000BB
S214006B00E9690000C4170020BD690000116B000091
S214006B1080B582B000AF154B3B6000237B6018E069
S214006B207B689B0008229446BC446344083B1A6872
S214006B307B689B0008218C46BC446344083B1B686A
S214006B401B78DBB202210B43DBB213707B68013388
S214006B507B607B68002BE3D0C046054B9847031E3E
S214006B60FBD1C046BD4602B080BDC04600180040FE
S214006B70E969000080B582B000AF78607B680022CB
S214006B801A70C046BD4602B080BD000080B582B017
S214006B9000AF02003960FB1D1A70FB1D1B78012B2D
S214006BA00AD0022B0FD0002B14D10E4B0D4A916940
S214006BB03A680A439A610FE00A4B0A4AD1693A6872
S214006BC00A43DA6108E0074B064A116A3A680A4344
S214006BD01A6201E0172300E000231800BD4602B049
S214006BE080BDC0460004004080B582B000AF020001
S214006BF0FB1D1A70064BFA1D127811001F220A4060
S214006C00012191400A001A60C046BD4602B080BD10
S214006C1000E100E080B582B000AF0200FB1D1A70F4
S214006C20074AFB1D1B7819001F230B4001219940C2
S214006C300B0019008023D150C046BD4602B080BD6F
S214006C4000E100E080B584B000AF78607B681B6828
S214006C50FB60FB689B7ADBB25BB2002B01DA012398
S214006C6000E000231800BD4604B080BD80B584B0A7
S214006C7000AF78607B681B68FB6003200A4B984770
S214006C80C0467B681800094B9847031EF9D1FB687D
S214006C901B889BB2022213439AB2FB681A80C04636
S214006CA0BD4604B080BDC046E96B0000456C0000E0
S214006CB080B584B000AF78607B681B68FB600320FB
S214006CC00D4B9847C0467B6818000C4B9847031E30
S214006CD0F9D1FB68C1229A71FB68C1221A72FB685F
S214006CE01B889BB2022293439AB2FB681A80C04666
S214006CF0BD4604B080BDC046156C0000456C000063
S214006D0080B584B000AF78607B681B68FB607B68EA
S214006D1018000D4B98477B6800229A827B680022F9
S214006D20DA82C0467B681800084B9847031EF9D1E4
S214006D30FB681B889BB2012213439AB2FB681A8039
S214006D40C046BD4604B080BDB16C0000456C000076
S214006D5080B584B000AF786039607B681B68BB6024
S214006D603B681A88BB681A803B689B78002B3AD031
S214006D70012B00D06CE0BB681B889AB2BB681A80F7
S214006D803B68DB78002B07D0BB681B889BB2802251
S214006D9013439AB2BB681A800F23FB1800221A709E
S214006DA01BE0C0467B681800334B9847031EF9D19A
S214006DB00F23FB181A783B6802329200D1580F2333
S214006DC0FB181A787B6818002C4B98470F23FB1883
S214006DD01A780F23FB1801321A700F23FB181B7842
S214006DE0002BDED036E0BB681B889BB20422134320
S214006DF09AB2BB681A803B68DB78002B01D0172359
S214006E0036E00E23FB1800221A701BE0C0467B6893
S214006E101800194B9847031EF9D10E23FB181A7851
S214006E203B6802329200D1580E23FB181A787B6812
S214006E301800124B98470E23FB181A780E23FB18DF
S214006E4001321A700E23FB181B78012BDED901E0E5
S214006E5017230DE03B681B79002B08D0BB685B88C6
S214006E609BB28022D20113439AB2BB685A80002399
S214006E701800BD4604B080BD456C0000116F0000D0
S214006E8080B586B000AFF860B9607A60FB68BA6813
S214006E901A6020210020174B98471423FB1818006F
S214006EA0154B98471423FB1802221A701423FB185C
S214006EB019000420114B98470420114B9847FB6893
S214006EC01800104B98477B689A78FB681A717B68A5
S214006ED01A79FB685A710C4BFA681A607A68FB6874
S214006EE011001800094B984703001800BD4606B06D
S214006EF080BDC0468D6B0000756B000099F20000E7
S214006F00DDF20000016D000004180020516D000045
S214006F1080B586B000AFF860B960FB1D1A70FB68DC
S214006F201B687B61C046FB6818001A4B9847031E17
S214006F30F9D1FB681B79002B0FD0012B22D1FB1D4A
S214006F401B78012B01D917231FE0FB1D1A787B69DC
S214006F5006329200B968D15016E0FB1D1B78022B52
S214006F6001D9172311E0BB680B4A934201D91723B6
S214006F700BE0FB1D1A78BB6899B27B690C32520095
S214006F80D15201E01A2300E000231800BD4606B0E7
S214006F9080BDC046456C0000FFFF000080B584B091
S214006FA000AF78600A00BB1C1A807B681B68FB6019
S214006FB07B681B79002B01D015230BE0C0467B684D
S214006FC01800064B9847031EF9D1FB68BA1C1288B6
S214006FD09A8200231800BD4604B080BD456C0000B0
S214006FE080B586B000AFF860B960FB1D1A70172335
S214006FF0FB1800221A70FB1D1B78022B04D11723E6
S214007000FB1800221A701FE0FB681B79002B0AD0C1
S214007010012B11D1FB1D1B78012B12D91723FB184E
S21400702017221A700DE0FB1D1B78022B0BD91723B5
S214007030FB1817221A7006E01723FB1817221A707F
S21400704002E0C04600E0C0461723FB181B78002B62
S21400705015D1FB1D1A78FB6802329200B968D15030
S214007060FB689B8A9BB21AB2FB1D1B7801219940D4
S2140070700B001BB213431BB29AB2FB689A8217230B
S214007080FB181B781800BD4606B080BD80B584B0DE
S21400709000AF78600A00FB1C1A707B681B68FB60F8
S2140070A0FB1C1B78022B03D1FB688022DA710AE0F6
S2140070B0FB1C1B7801229A401300DBB2032213400C
S2140070C0DAB2FB68DA717B68DB8A9BB21AB2FB1C09
S2140070D01B78012199400B001BB213431BB29AB2D6
S2140070E07B68DA82C046BD4604B080BD80B586B0F7
S2140070F000AF7860314B7A689200D3587B617B6929
S2140071001B683B610E23FB187A69D28A1A807B695A
S2140071109B8A9AB20E23FB180E21791809880A401A
S2140071201A803B691B7ADAB20C23FB181A803B697B
S214007130DB79DBB29AB20C23FB180C21791809888C
S2140071400A401A800C23FB181B88802213400CD0A0
S2140071500E23FB181B880422134002D07B691B6990
S21400716098473B6980221A7224E00C23FB181B8880
S214007170012213400CD00E23FB181B88012213405B
S21400718002D07B699B6898473B6901221A7211E01E
S2140071900C23FB181B88022213400BD00E23FB186F
S2140071A01B880222134002D07B69DB6898473B6944
S2140071B002221A72C046BD4606B080BD04180020E2
S2140071C080B500AF0020024B9847C046BD4680BD44
S2140071D0ED70000080B582B000AF78607B6800225A
S2140071E01A70C046BD4602B080BD000080B582B0B1
S2140071F000AF02003960FB1D1A70FB1D1B78012BC7
S2140072000AD0022B0FD0002B14D10E4B0D4A9169D9
S2140072103A680A439A610FE00A4B0A4AD1693A680B
S2140072200A43DA6108E0074B064A116A3A680A43DD
S2140072301A6201E0172300E000231800BD4602B0E2
S21400724080BDC0460004004080B582B000AF7860C4
S2140072507B6880221A707B6800225A707B68012245
S2140072609A707B680022DA70C046BD4602B080BDC8
S21400727080B500AF054B9B78DBB21A0002231340A3
S2140072805A1E9341DBB21800BD4680BD0020004167
S21400729080B584B000AF78607B681B68FB60FB68D5
S2140072A0DB69072213405A1E9341DBB21800BD4625
S2140072B004B080BD80B582B000AF7860C0467B6801
S2140072C01800044B9847031EF9D1C046BD4602B0CD
S2140072D080BDC04691720000F0B597B000AF7861EF
S2140072E039610023FB6300233B650023FB643B23DB
S2140072F010229446BC44634400221A707B691B68C3
S214007300BB637B691B687B6323231022BA18D418DF
S2140073107B6B1800C04B9847030023700C23102289
S2140073209446BC4463441800BC4B98473B69DB69F1
S2140073307B643B691B6A3B647B6C002B06D17B6BD2
S21400734000211800B64B984703007B647B6CDAB2CA
S2140073500C2310218C46BC4463441A700C23102264
S2140073609446BC44634402225A707B6C1B0CDBB20E
S2140073700C2210218C46BC44624411001800A94B14
S21400738098473B6C002B06D17B6B01211800A44B61
S214007390984703003B643B6CDAB20C2310218C4602
S2140073A0BC4463441A700C2310229446BC446344C5
S2140073B002225A703B6C1B0CDBB20C2210218C464E
S2140073C0BC44624411001800964B98473B699A8A61
S2140073D07B69DA803B69DA8A7B691A813B691B7EA6
S2140073E0002B03D1904B9847031E02D080237B6569
S2140073F001E000237B653B691B69002B04D03B69D9
S2140074001B697A6D13437B653B699B687A6D1343F2
S2140074107B653B6924229B5C002B04D07B6D80221D
S214007420D20513437B653B699B6A002B04D03B69FE
S2140074309B6A7A6D13437B653B692C229B5C002B11
S21400744005D13B699A6880239B049A4204D17B6DE0
S2140074508022120513437B653B692D229B5C002B23
S21400746004D07B6D8022120413437B653B692E2279
S2140074709B5C002B04D07B6D8022D20313437B657C
S214007480BB6B1A687B6D1A43BB6B1A60BB6B8022A2
S21400749052005A60232310229446BC4463441B784F
S2140074A01433DBB21800614B98470300FB623B695C
S2140074B01B68FA2292005343BB623B695B68FA2260
S2140074C0920053437B623B691B8E3B62584BF86AC3
S2140074D0984705000E00564BB86A9847B860F960A2
S2140074E0534BF86A9847534C534A544BA0470300F3
S2140074F00C003B607C604E4B386A984702000B00DD
S2140075004C4C38687968A04703000C00180021002E
S2140075104B4C00224B4BA04703000C001A002300E4
S214007520444CB868F968A04703000C001A00230012
S214007530454C28003100A04703000C001D00260023
S214007540BB6A5A003A4B1000984702000B003C4CAE
S21400755028003100A04703000C00180021003A4C18
S21400756000223A4BA04703000C001D002600BB6A11
S2140075705A002F4B1000984702000B00344C28008E
S2140075803100A04703000C0019002200314B080010
S214007590110098470300FB633B699A6880239B04AD
S2140075A09A426AD1224BF86A9847254C02000B0093
S2140075B0A04703000C001D0026001D4B786A984764
S2140075C01C4C0022244BA04703000C001A0023008A
S2140075D01F4C28003100A04703000C0018002100B3
S2140075E0194C0022194BA04703000C00190022007A
S2140075F0184B0800110098470300FB64FB6C002B37
S2140076002ED0164B796AF86A984703009A1EFB6CD0
S214007610D31A3B6531E0C046957F000049720000F2
S214007620657E000085F5000071720000BDF3000065
S2140076300D9401007988010095D626E80B2E113EA0
S214007640F17B010000002440798D01000000F03F2E
S21400765011820100A5930100000008403D7501005D
S2140076607B6A5A00FB6AD3185A1E7B6A59001D4B68
S214007670100098470300013B3B65FB6BFF2B08DCC3
S214007680FB6B002B05DB3B6DFF2B02DC3B6D002B01
S21400769006DA3B2310229446BC44634440221A7008
S2140076A03B2310229446BC4463441B78402B0ED0E8
S2140076B0FB6BFF221A403B6D1B041900FF231B04C3
S2140076C00B401343FA6C12061A43BB6BDA603B237B
S2140076D010229446BC4463441B781800BD4617B07D
S2140076E0F0BDC0463D75010080B58AB000AFF860B9
S2140076F0B9607A60FB68BA681A60FB681B687B62D0
S214007700FB681B681800254B984703003B623B6AE2
S2140077100233FB613B6A1433BB610122FB699A406A
S2140077201300190002201E4B98471423FB1818005C
S2140077301C4B98477B681A7B1423FB181A70BB698E
S214007740DBB21422BA1811001800174B9847BB6911
S214007750DBB21800154B98477B681B7B002118008E
S214007760134B98477B6A1B680222134001D01C23E8
S21400777010E07B6A1B680122134001D0052309E054
S2140077807B6A14221A607A68FB6811001800094B9D
S214007790984703001800BD460AB080BD957F0000DC
S2140077A0ED710000D571000099F20000DDF20000D6
S2140077B0D97D0000D972000080B584B000AF786033
S2140077C07B681B68FB60FB681B7EDBB21A0002232B
S2140077D013400BD0FB6802221A76FB685B8B9BB2C9
S2140077E01A000223134011D0412310E0FB685B8B84
S2140077F09BB21A000423134008D0FB685B68C022C3
S21400780092021A43FB685A60182300E0002318000F
S214007810BD4604B080BD80B584B000AF78607B689C
S2140078201B68BB600E23FB1800221A800FE00E2395
S214007830FB180E22BA18128801321A807B681B8940
S2140078400E22BA1812889A4201D312230EE0BB68A1
S2140078501B7EDBB21A000123134006D1BB681B7ED9
S214007860DBB21A0002231340E1D000231800BD4605
S21400787004B080BD90B585B000AF78600A00FB1CF0
S2140078801A707B681B68FB60FB685B688022D2020C
S2140078901A43FB685A60FB1C1A78FB685A620B2373
S2140078A0FC187B681800074B984703002370FB689A
S2140078B001221A760B23FB181B781800BD4605B06C
S2140078C090BDC0461778000090B587B000AF7860CE
S2140078D039607B681B68FB601423FB183A68528883
S2140078E01A801223FB1800221A80FB681B681B01F3
S2140078F0DB0FDBB21A000B23FB18511E8A411A70ED
S2140079003B685B7A002B06D03B689A7A7B6811004E
S2140079101800854B9847FB685B68844A1A40FB68EA
S2140079205A603B681B7A002B42D03B681B885A0083
S2140079303B685B7A9B0313431A0080231B021A439F
S214007940FB685A621723FC187B681800784B984728
S21400795003002370FB685B68744A1A40FB685A6031
S2140079601723FB181B78002B07D11723FC187B68FE
S2140079701800704B9847030023701723FB181B78DA
S214007980002B11D13B681B881B0A9BB2782213433D
S2140079909BB25A003B685B7A9B0313430122134356
S2140079A01A00FB685A620FE01723FB181B78B6E034
S2140079B03B681B885B0001221A433B685B7A9B038B
S2140079C013431A00FB685A621723FC187B681800DA
S2140079D0574B9847030023700B23FB181B78002B8C
S2140079E00BD03B685B88012B07D1FB685B68802265
S2140079F0D2021A43FB685A6005E0FB685B684B4A94
S214007A001A40FB685A601723FB181B78002B07D117
S214007A101723FC187B681800464B98470300237012
S214007A201723FB181B78002B00D075E04BE0FB6893
S214007A305B8B9BB21A002023134001D141236EE0DA
S214007A407B68DB7A002B1ED00B23FB181B780122E9
S214007A505340DBB2002B04D01423FB181B88002BEA
S214007A6009D00B23FB181B78002B0CD01423FB1813
S214007A701B88012B07D1FB685B688022D2021A4361
S214007A80FB685A601AE07B6818002B4B98473B68E7
S214007A905A681223FB181B8812217918581C088074
S214007AA0D318FA682821525CD2B21A701723FC1831
S214007AB07B6818001E4B9847030023701723FB189B
S214007AC01B78002B09D11423FB181B881422BA1824
S214007AD0591E1180002BAAD100E0C0467B689B7A15
S214007AE0002B0AD07B681800134B9847FB685B682E
S214007AF0C02292021A43FB685A607B6818000E4B3D
S214007B0098473B685A681223FB181B88D318FA68F4
S214007B102821525CD2B21A701723FB181B78180063
S214007B20BD4607B090BDC04675780000FFFFFBFF5E
S214007B3017780000B9770000B572000080B582B0F3
S214007B4000AF786039607B6801229A727B680122F8
S214007B50DA723A687B6811001800034B98470300F6
S214007B601800BD4602B080BDC978000090B587B049
S214007B7000AF786039607B681B68FB601423FB18D5
S214007B803A6852881A807B681800514B98473B68C1
S214007B905B7A002B06D03B689A7A7B681100180047
S214007BA04C4B9847FB685B684B4A1A40FB685A6028
S214007BB03B681B7A002B0DD03B681B885A003B683D
S214007BC05B7A9B0313431A0080231B021A43FB684D
S214007BD05A6209E03B681B885A003B685B7A9B0345
S214007BE013431A00FB685A621723FC187B681800B8
S214007BF03A4B9847030023701723FB181B78002B7B
S214007C0007D11723FC187B681800354B98470300EC
S214007C1023701723FB181B78002B52D11223FB1856
S214007C2000221A8033E0FB685B8B9BB21A0020238D
S214007C30134001D1412347E07B681800244B984746
S214007C403B685A681223FB181B8812217918581CA7
S214007C500880D3181978FB68282299541723FC1833
S214007C607B6818001D4B9847030023701723FB18EA
S214007C701B78002B15D1FB685B8B9BB21A00042384
S214007C80134004D01723FB181E221A700AE0142390
S214007C90FB181B881422BA18591E1180002BC2D15B
S214007CA000E0C0467B689B7A002B0AD07B681800F1
S214007CB0074B9847FB685B68C02292021A43FB6832
S214007CC05A601723FB181B781800BD4607B090BDF6
S214007CD0B572000075780000FFFFFBFF1778000004
S214007CE0B977000080B582B000AF786039607B68F5
S214007CF001229A727B680122DA723A687B68110068
S214007D001800034B984703001800BD4602B080BD1C
S214007D106D7B000080B582B000AF786039607B680C
S214007D2000229A727B680122DA723A687B68110038
S214007D301800034B984703001800BD4602B080BDEC
S214007D406D7B000080B582B000AF78607B68002253
S214007D501A70C046BD4602B080BD80B586B000AF82
S214007D60F860B9607A601623FB1800221A80BB6898
S214007D703B61BB685A08FB689A4201D2402326E062
S214007D80BB685B083B610AE03A69FB68D31A3B6153
S214007D901623FB181A881623FB1801321A803A6934
S214007DA0FB689A42F0D21623FB181622BA181288DD
S214007DB0013A1A801623FB181B88FF2B01D9402393
S214007DC005E07B681622BA1812881A80002318006D
S214007DD0BD4606B080BD000080B584B000AF02008E
S214007DE0FB1D1A70BB1D0A1C1A701A4B1B78012249
S214007DF05340DBB2002B03D1BB1D1B78002B1BD0DE
S214007E000C23FB181800144B98470C23FB18FA1D7C
S214007E1012781A700C23FB18190013200F4B984782
S214007E2013200F4B98470B4BFA1D12785A70094BCC
S214007E3001221A70002308E0064B5B78FA1D1278C0
S214007E409A4201D1002300E01D231800BD4604B06D
S214007E5080BDC046AC0C0020457D000099F20000B5
S214007E60DDF2000080B582B000AF78600A00FB1C2F
S214007E701A707B68344A934222D0334A934203D81E
S214007E80324A934207D05AE0314A93422DD0314AC3
S214007E9093423FD053E0FB1C1B78012B0AD002DC38
S214007EA0002B05D04BE0022B06D0032B06D046E075
S214007EB0294B45E0294B43E0294B41E0294B3FE065
S214007EC0FB1C1B78012B0AD002DC002B05D036E009
S214007ED0022B06D0032B06D031E0032330E0224BE2
S214007EE02EE0224B2CE0224B2AE0FB1C1B78012BB9
S214007EF00AD002DC002B05D021E0022B06D0032B93
S214007F0006D01CE01B4B1BE01B4B19E01B4B17E07D
S214007F101B4B15E0FB1C1B78012B0AD002DC002B48
S214007F2005D00CE0022B06D0032B06D007E0154B3D
S214007F3006E0154B04E0154B02E0154B00E000236D
S214007F401800BD4602B080BD000C0042000800428A
S214007F500010004200140042030004000300050065
S214007F6003000600030007000300010003001E00D4
S214007F7003001F00030008000300090003000A00B6
S214007F8003000B00030010000300110003001200A2
S214007F900300130090B589B000AF78600C23FB187F
S214007FA00F4A13CA13C312681A600023FB610EE05F
S214007FB00C23FB18FA699200D3581A007B689A4281
S214007FC002D1FB69DBB206E0FB690133FB61FB69AA
S214007FD0032BEDD900231800BD4609B090BDC0465E
S214007FE0CCD9010080B582B000AF0200FB1D1A702C
S214007FF0C046BD4602B080BD80B584B000AF02006A
S2140080003960FB1D1A70134B1B7801225340DBB2FC
S214008010002B15D00023FB600CE00F4BFA68920093
S2140080200E49D1500E4BFA6892000021D150FB68E1
S2140080300133FB60FB68032BEFD9064B01221A7055
S214008040FB1D1A78044B92003968D150C046BD46D5
S21400805004B080BDAE0C0020B00C0020E57F000010
S2140080600818002090B585B000AF78600823FA188D
S2140080700C4B1000190004231A000B4B98470F23D3
S214008080FC187B681800094B9847030023700F23E1
S214008090FB181B780822BA18D35C5BB21800BD46E2
S2140080A005B090BDDCD9010069950100957F000000
S2140080B080B500AF034B1B6800209847C046BD46FE
S2140080C080BDC046B00C002080B500AF034B5B6897
S2140080D001209847C046BD4680BDC046B00C002073
S2140080E080B500AF034B9B6802209847C046BD464C
S2140080F080BDC046B00C002080B500AF034BDB68E7
S21400810003209847C046BD4680BDC046B00C002040
S21400811080B582B000AF78607B6880221A707B687A
S21400812000225A707B6801229A707B680022DA70FF
S214008130C046BD4602B080BD80B584B000AF020028
S214008140FB1D1A700F23FB18FA1D1278D2091A703D
S2140081500E23FB18FA1D127852091A700D4BBB60DD
S2140081600F23FB181B78002B0FD10F23FB181B784F
S2140081709B0010229446BC446344083B1A680E23B6
S214008180FB181B78DB01D31800E000231800BD465F
S21400819004B080BD0044004180B582B000AF02004C
S2140081A0FB1D1A70FB1D1B781800034B9847030035
S2140081B01800BD4602B080BD3981000080B584B08D
S2140081C000AF0200FB1D1A70BB1D0A1C1A70FB1DB7
S2140081D01B7818000D4B98470300FB60FB1D1B78AF
S2140081E01F22134001229A401300BB60BB1D1B7860
S2140081F0002B03D0FB68BA689A6102E0FB68BA6895
S2140082005A61C046BD4604B080BDC0469981000094
S21400821080B582B000AF78607B6800221A70C046D6
S214008220BD4602B080BD000080B582B000AF02003F
S2140082303960FB1D1A70FB1D1B78012B0AD0022B20
S2140082400FD0002B14D10E4B0D4A91693A680A43A1
S2140082509A610FE00A4B0A4AD1693A680A43DA6122
S21400826008E0074B064A116A3A680A431A6201E0B8
S214008270172300E000231800BD4602B080BDC046AC
S2140082800004004080B500AF054B9B78DBB21A00B7
S214008290022313405A1E9341DBB21800BD4680BD30
S2140082A00020004180B584B000AF78607B681B6812
S2140082B0FB60FB681B7EDBB21A00022313405A1ECB
S2140082C09341DBB21800BD4604B080BD80B584B0D3
S2140082D000AF78607B681B68FB60FB681B7EDBB2C8
S2140082E01A00012313405A1E9341DBB21800BD4604
S2140082F004B080BD80B584B000AF78607B681B6832
S214008300FB60FB681B7EDBB21A00042313405A1E78
S2140083109341DBB21800BD4604B080BD80B584B082
S21400832000AF78600A00BB1C1A807B681B68FB6085
S2140083307B6818000A4B984703001A000123534035
S214008340DBB2002B01D0052306E0BB1C1B88DB0537
S214008350DA0DFB689A6200231800BD4604B080BDA3
S214008360CD82000080B584B000AF786039607B684D
S2140083701B68BB607B6818001B4B984703001A00FD
S21400838001235340DBB2002B01D0102327E00F233C
S214008390FB1800221A70BB685B8B9BB21A00042382
S2140083A0134006D00F23FB181E221A70BB68042247
S2140083B05A837B689B79012B08D1BB689B6A9BB26A
S2140083C0DB05DB0D9AB23B681A8005E0BB689B6A4A
S2140083D0DBB29AB23B681A800F23FB181B78180092
S2140083E0BD4604B080BDC046F582000080B584B0AE
S2140083F000AF78607B681B68FB60FB6802221A7619
S214008400C046BD4604B080BD90B593B000AF78605E
S21400841039607B681B687B637B681B683B631C2337
S214008420FB181800854B98471C23FB1800225A702F
S2140084303B681B78002B03D11C23FB1800229A7084
S2140084403B689A6A0C23FB181A603B68DA6A0C23AE
S214008450FB185A603B681A6B0C23FB189A603B6843
S2140084605A6B0C23FB18DA604723FB1800221A709D
S2140084702CE04723FB181A780C23FB189200D358DD
S2140084803B643B6C002B09D14723FB181A783B6BE7
S214008490110018006A4B984703003B643B6C01339D
S2140084A00DD03B6CDAB21C23FB181A703B6C1B0C0D
S2140084B0DBB21C22BA1811001800624B98474723FB
S2140084C0FB181A784723FB1801321A704723FB184B
S2140084D01B78032BCDD93B681A787B685A713B68AA
S2140084E01A7C7B689A713B689A7C7B68DA713B6879
S2140084F01A7D7B681A720A23FB1800221A80002352
S214008500FB630023BB633B681B78012B29D17B6888
S2140085101B6818004C4B98470300FB62FB6A143339
S214008520BB62BB6ADBB21800484B984703007B620D
S2140085303B689B692322BC180A22BA18796A18007D
S214008540434B9847030023702323FB181B78002B0C
S21400855001D017236DE00A23FB181B88DAB27B6B69
S2140085601A733B681B78002B1AD13B689B69FB6328
S2140085703B689B8BBB637B6B5B6A3A68927F1100A0
S2140085803A68D27F12040A431A437B6B5A623B68EE
S21400859020229B5C002B03D0BB6B40221343BB63A3
S2140085A03B685B68FA6B1343FB633B689B68FA6B3C
S2140085B01343FB633B68DB68FA6B1343FB633B6860
S2140085C01B7C1A00BB6B1343BB633B685B7C002BB6
S2140085D003D1204B9847031E03D0FB6B8022134326
S2140085E0FB633B689B7C002B04D0BB6B8022920213
S2140085F01343BB633B68DB7C002B04D0BB6B802241
S21400860092001343BB633B681B7D002B04D0BB6BFF
S214008610802292011343BB637B6B1A68FB6B1A4381
S2140086207B6B1A607B6B5A68BB6B1A437B6B5A601A
S21400863000231800BD4613B090BDC046118100004F
S214008640657E000085F50000957F0000BDF3000004
S2140086505B7D00008582000090B58BB000AFF860AF
S214008660B9607A60FB68BA681A60FB681B683B6290
S2140086703B6A1B680222134001D01C23A6E03B6A1B
S2140086801B680122134001D005239FE0FB681B688E
S2140086901800504B98470300FB61FB690233BB612F
S2140086A0FB6914337B610122BB699A4013001900F1
S2140086B00220494B98471023FB181800474B984751
S2140086C07B6824229A5C1023FB181A707B69DBB245
S2140086D01022BA1811001800414B98477B69DBB28C
S2140086E01800404B98477B6824229B5C00211800AA
S2140086F03D4B98477B681B78012B05D13B6A1B686E
S2140087000C221A433B6A1A607B681B78002B05D143
S2140087103B6A1B6808221A433B6A1A602723FB1829
S21400872000221A7010E02723FB181B78FA68023321
S2140087309B00D318043300221A602723FB181A78EC
S2140087402723FB1801321A702723FB181B78062BE9
S214008750E9D9FB680022DA62FB6800229A62FB68AD
S21400876000229A86FB6800221A86FB6836220021C1
S2140087709954FB68372200219954FB68382200215F
S2140087809954FB6803225A72FB6800221A71FB6830
S2140087901B681322BC1818000E4B98470300237062
S2140087A0124A1323FB181B7811001800104B984729
S2140087B01323FB181A780F4B9200F968D1507A6889
S2140087C0FB68110018000C4B984703001800BD46C4
S2140087D00BB090BD957F000029820000118200003A
S2140087E099F20000DDF20000D97D0000698D0000DE
S2140087F0F97F0000081800200984000080B586B0C4
S21400880000AFF860B960FB1D1A70FB685B79012B3E
S21400881001D015235CE0FB681B7A01225340DBB2D3
S214008820002B54D0FB1D1B78002B4AD0BB685B780E
S214008830002B3FD0FB681800274B984703001A0010
S21400884001235340DBB2002B07D0BB681B78012105
S2140088501800224B984705233AE0BB681B78002196
S21400886018001E4B9847BB689B789AB2FB681100AD
S21400887018001B4B9847FB68DB7901225340DBB29C
S214008880002B24D0C046FB681800164B9847030000
S2140088901A0001235340DBB2002BF4D11623FB1839
S2140088A000221A801623FA18FB68110018000E4BD7
S2140088B098470CE0BB681B7800211800074B9847C8
S2140088C005E0BB681B7801211800044B984700237D
S2140088D01800BD4606B080BDCD820000BD810000F8
S2140088E01D830000F58200006583000080B58AB015
S2140088F000AFF860B960BB1D1A80FB6838229B5C2D
S214008900DBB2052B01D1052370E1BB1D1B88002BB4
S21400891001D117236AE1FB685B79002B09D1FB685C
S2140089201800B44B9847031E03D0FB681800B24BE0
S21400893098472623FB1800221A802423FB18BA1D0A
S21400894012881A80FEE0FB685B79002B2AD1002390
S2140089503B6208E0FB681800A84B9847031E07D147
S2140089603B6A01333B623B6AA54A9342F2D900E078
S214008970C046FB6818009F4B9847031E05D0FB684F
S21400898018009D4B9847042330E1FB6818009B4B6A
S214008990984703001A0001235340DBB2002B01D096
S2140089A0122323E1C046FB681800944B9847030047
S2140089B01A0001235340DBB2002BF4D12623FB1808
S2140089C01B882622BA18591C11801A00BB689B18EF
S2140089D01A781E23FB181A80FB689B79012B15D189
S2140089E02623FB181B882622BA18591C11801A0049
S2140089F0BB689B181B781B021AB21E23FB180021AB
S214008A005B5E13431AB21E23FB181A801E23FB1844
S214008A101A88FB68110018007A4B9847FB68DB79C8
S214008A202422BA182421791809881180002B00D135
S214008A3088E0FB685B79002B00D069E00023BB610F
S214008A4047E0BB1D1B88002B3AD0FB6818006B4B19
S214008A509847031E34D02623FB181B882622BA18F4
S214008A60591C11801A00BB689B181A781E23FB1825
S214008A701A80FB689B79012B15D12623FB181B88CF
S214008A802622BA18591C11801A00BB689B181B783E
S214008A901B021AB21E23FB1800215B5E13431AB298
S214008AA01E23FB181A801E23FB181A88FB68110069
S214008AB01800544B9847BB1D1A88BB1D013A1A80F4
S214008AC0FB681800504B9847031E07D1BB6901335B
S214008AD0BB61BB694A4A9342B3D900E0C046FB6813
S214008AE01800444B9847031E05D0FB681800424BFD
S214008AF0984704237AE0FB681800434B9847030026
S214008B001A0001235340DBB2002B01D012236DE084
S214008B10C046FB6818003C4B984703001A00012328
S214008B205340DBB2002BF4D11223FA18FB68110075
S214008B301800364B98472423FB181A882423FB1862
S214008B40013A1A80BB1D1B88BA1D591E1180002BC6
S214008B5000D0F8E6FB685B79012B0BD1C046FB68BA
S214008B601800244B984703001A0001235340DBB239
S214008B70002BF4D1FB685B79002B36D1FB68DB79E0
S214008B80002B32D02CE000237B6108E0FB68180045
S214008B901D4B9847031E07D17B6901337B617B69B8
S214008BA0174A9342F2D900E0C046FB681800164BFD
S214008BB0984703001A0001235340DBB2002B01D074
S214008BC0122313E01023FA18FB68110018000F4B4D
S214008BD098472423FB181A882423FB18013A1A8086
S214008BE02423FB181B88002BCDD100231800BD467C
S214008BF00AB080BDA5820000ED830000CD82000093
S214008C00102700001D830000F58200006583000029
S214008C1080B584B000AF78607B681B68BB607B68FB
S214008C20DB6A1B78DAB20E23FB181A807B68DB6AD5
S214008C305A1C7B68DA627B689B79012B13D17B68B0
S214008C40DB6A1B78DBB21B021AB20E23FB1800216C
S214008C505B5E13431AB20E23FB181A807B68DB6A2E
S214008C605A1C7B68DA620E23FB181B88DB05DA0DBC
S214008C70BB689A627B689B8E9BB2013B9AB27B680C
S214008C809A86C046BD4604B080BD000080B584B05C
S214008C9000AF78607B681B68FB60084B1B881A0077
S214008CA0FB689A627B685B8E9BB2013B9AB27B68DC
S214008CB05A86C046BD4604B080BDC046181800207F
S214008CC080B584B000AF78607B681B68FB600A23C1
S214008CD0FB1800221A80FB689A6A0A23FB181A807F
S214008CE07B685B8E9BB2013B9AB27B685A86C04615
S214008CF0BD4604B080BD80B584B000AF78607B68A8
S214008D001B68FB60FB689B6A9AB20A23FB18D205B5
S214008D10D20D1A807B689B6A0A22BA181288D2B2D1
S214008D201A707B689B6A5A1C7B689A627B689B7980
S214008D30012B0DD17B689B6A0A22BA181288120A88
S214008D4092B2D2B21A707B689B6A5A1C7B689A628F
S214008D507B681B8E9BB2013B9AB27B681A86C04624
S214008D60BD4604B080BD000080B586B000AF0200EE
S214008D70FB1D1A70FB1D1A78B94B9200D3587B6105
S214008D807B691B683B617B6937229A5C7B6936216D
S214008D90595C0F23FB180A401A703B691B7EDAB237
S214008DA00C23FB181A803B699B7DDBB29AB20C231E
S214008DB0FB180C21791809880A401A800C23FB1826
S214008DC01B880122134041D07B695B79012B10D1AF
S214008DD07B695B7ADBB2002B0BD17B691800A14B59
S214008DE098477B695B8E9BB2002B02D13B690122C0
S214008DF01A757B695B79012B04D17B695B7ADBB2E0
S214008E00002B08D17B695B79002B1FD17B695B7ACD
S214008E10DBB2002B1AD07B691800934B98477B690E
S214008E209B8E9BB2002B11D13B6901221A757B6980
S214008E305B7ADBB2012B09D17B69DB7901225340D7
S214008E40DBB2002B02D03B6902229A750C23FB187A
S214008E501B880422134000D17EE03B695B8B9BB2EB
S214008E601A000423134022D07B695B7ADBB2012B05
S214008E7014D07B6938221E2199547B6903225A72CA
S214008E803B6905221A750F23FB181B78082213402E
S214008E9004D07B699B697A69100098473B699A6A97
S214008EA00A23FB181A803B6904225A8354E07B6924
S214008EB05B7ADBB2012B1ED17B6918006B4B98479F
S214008EC07B695B8E9BB2002B46D13B6904221A75E8
S214008ED07B693822002199547B6903225A720F233A
S214008EE0FB181B780122134036D07B69DB687A6951
S214008EF01000984730E07B6918005D4B98477B6907
S214008F001B8E9BB2002B27D17B69382200219954F7
S214008F103B6904221A757B695B7ADBB2022B0BD1A4
S214008F200F23FB181B780422134015D07B695B695E
S214008F307A69100098470FE07B695B7ADBB2002BFA
S214008F400AD10F23FB181B780222134004D07B693A
S214008F501B697A69100098470C23FB181B880222AD
S214008F60134046D07B695B79002B1DD13B690722F5
S214008F701A753B6902221A767B6903225A727B694C
S214008F8000229A867B6900221A867B693822002195
S214008F9099540F23FB181B781022134004D07B69CA
S214008FA0DB697A69100098477B695B79012B20D1D1
S214008FB07B695B7ADBB2012B1BD17B69DB790122F3
S214008FC05340DBB2002B14D03B6902221A757B6932
S214008FD003225A727B693822002199540F23FB180A
S214008FE01B780122134004D07B69DB687A69100085
S214008FF098470C23FB181B880822134014D07B6963
S2140090005B79002B10D13B6908221A753B69082250
S2140090101A760F23FB181B782022134004D07B6996
S2140090201B6A7A69100098470C23FB181B8880225D
S214009030134010D03B6980221A753B6980221A764D
S2140090400F23FB181B784022134004D07B695B6A11
S2140090507A6910009847C046BD4606B080BDC04637
S214009060081800208D8C0000118C0000C18C0000B8
S214009070F78C000080B584B000AFF860B960FB1DC7
S2140090801A70FB1D1A78FB6802329200B968D1503C
S214009090FB1D1B78022B07D1FB681B7E1022134397
S2140090A0DAB2FB681A7619E0FB1D1B78032B07D192
S2140090B0FB681B7E20221343DAB2FB681A760DE0AB
S2140090C0FB681B7E5AB2FB1D1B78012199400B00E2
S2140090D05BB213435BB2DAB2FB681A760023180061
S2140090E0BD4604B080BD000080B500AF0020024B36
S2140090F09847C046BD4680BD2591000080B500AFAC
S2140091000120024B9847C046BD4680BD2591000011
S21400911080B500AF0220024B9847C046BD4680BDD2
S2140091202591000080B584B000AF0200FB1D1A70C8
S214009130FB1D1A78284B9200D358FB60FB681B680F
S2140091409B7BDBB2FA68127E1340DAB2FB68597E6C
S2140091500B23FB180A401A700B23FB181B780122FE
S214009160134008D0FB689B68FA6810009847FB68B5
S2140091701B6801229A730B23FB181B7802221340EC
S21400918008D0FB68DB68FA6810009847FB681B6825
S21400919002229A730B23FB181B781022134008D068
S2140091A0FB681B69FA6810009847FB681B6810226A
S2140091B09A730B23FB181B782022134008D0FB68F9
S2140091C05B69FA6810009847FB681B6820229A7350
S2140091D0C046BD4604B080BD1C18002080B582B0D5
S2140091E000AF78607B6800221A70C046BD4602B0A9
S2140091F080BD000080B582B000AF02003960FB1D64
S2140092001A70FB1D1B78012B0AD0022B0FD0002BE7
S21400921014D10E4B0D4A91693A680A439A610FE0E1
S2140092200A4B0A4AD1693A680A43DA6108E0074BF2
S214009230064A116A3A680A431A6201E0172300E0F8
S21400924000231800BD4602B080BDC04600040040A2
S21400925080B582B000AF78607B6880221A707B6829
S21400926000225A707B6801229A707B680022DA70AE
S214009270C046BD4602B080BD80B584B000AF786001
S2140092807B681B68FB60FB68DB7BDBB21A00802315
S21400929013405A1E9341DBB21800BD4604B080BD91
S2140092A090B587B000AF78600823FB180D4A13CA44
S2140092B013C300237B610DE00823FB187A69920034
S2140092C0D2587B689A4202D17B69DBB206E07B69A2
S2140092D001337B617B69022BEED900231800BD4663
S2140092E007B090BDE0D9010090B58DB000AFF86032
S2140092F0B9607A602E23FB1800221A802D23FB18F3
S21400930000221A702C23FB1800221A702923FC183E
S214009310BB681800BF4B9847030023702423FA1835
S214009320BD4B1000190003231A00BC4B98471C23A2
S214009330FA18BB4B1000190006231A00B74B9847C3
S2140093402B23FB1800221A700EE02B23FB181A782A
S214009350FB68023292000021D1502B23FB181A78AA
S2140093602B23FB1801321A702B23FB181B78032BB8
S214009370EBD9FB6800221A76FB6800225A7629236E
S214009380FB181A78A74B9200F968D150FB68BA68A8
S2140093901A607B689B78082B08D12923FB181B785A
S2140093A003330122134001D01723C4E17B689A7867
S2140093B0FB681A71BB681B889BB21A000123134016
S2140093C001D00523B7E1BB68DB7BDBB21A001023B4
S2140093D0134001D01C23AEE1BB681B889BB21A0069
S2140093E00223134001D01C23A5E17B681B7C002BC5
S2140093F017D01823FB1818008B4B98477B689B697F
S214009400DAB21823FB181A701823FB1801225A70B8
S2140094107B685B69DBB21822BA1811001800834B10
S21400942098477B681B7F002B17D01823FB18180063
S2140094307D4B98477B685B6ADAB21823FB181A7074
S2140094401823FB1801225A707B681B6ADBB21822AD
S214009450BA1811001800754B98472923FB181A787C
S2140094601C23FB185200D35A19000220704B984751
S2140094707B689B78082B0BD12923FB181B785A1C7A
S2140094801C23FB185200D35A19000220684B984739
S2140094901423FB181800674B98477B681A78142328
S2140094A0FB181A702923FB181B782422BA18D35CE1
S2140094B01422BA18110018005F4B98472923FB188E
S2140094C01B782422BA18D35C18005C4B98477B683C
S2140094D09A787B689B791343DBB29AB27B681B89C8
S2140094E0134399B27B689A882E23FB180A431A8086
S2140094F07B685B78002B08D02E23FB182E22BA1828
S2140095001288802109010A431A80C046FB681800A9
S2140095104B4B9847031EF9D1BB682E22BA18128807
S2140095201A807B685B7B002B03D02D23FB1804225C
S2140095301A707B689B7B002B07D02D23FB182D22EF
S214009540BA18127801210A431A70C046FB68180040
S2140095503B4B9847031EF9D1BB68FF221A712D2397
S214009560FB181B78002B0BD0C046FB681800344B4A
S2140095709847031EF9D1BB682D22BA1812785A7183
S2140095802C23FB187A68927A1A702A23FB1800227A
S2140095901A701CE02A23FB181B787A68D318DB7A2B
S2140095A0002B0DD02A23FB181B7810229A4013009C
S2140095B0D9B22C23FB182C22BA1812780A431A7038
S2140095C02A23FB181A782A23FB1801321A702A233A
S2140095D0FB181B78012BDDD9C046FB681800184B1A
S2140095E09847031EF9D1BB682C22BA1812789A71D4
S2140095F0C046FB681800124B9847031EF9D1FB685B
S2140096001B79042B1ED0082B00D170E0002B4BD00A
S21400961090E0C046A1920000ECD9010069950100D7
S214009620F0D901001C1800205192000085F50000BA
S214009630F5910000DD91000099F20000DDF20000D7
S21400964079920000C046FB6818003D4B9847031E01
S214009650F9D17B6828229A5CBB681A74C046FB68FE
S2140096601800374B9847031EF9D17B6829229A5C6D
S214009670BB681A75C046FB681800314B9847031E36
S214009680F9D17B682A229A5CBB681A76C046FB68CA
S21400969018002B4B9847031EF9D17B682B229A5C47
S2140096A0BB685A76002346E0C046FB681800244B89
S2140096B09847031EF9D17B681A8DBB681A82C0468C
S2140096C0FB6818001E4B9847031EF9D17B685A8D1D
S2140096D0BB681A83C046FB681800194B9847031EE0
S2140096E0F9D17B689A8DBB685A83002323E0C04675
S2140096F0FB681800124B9847031EF9D17B689A6ADC
S214009700BB681A61C046FB6818000D4B9847031EDD
S214009710F9D17B68DA6ABB689A61C046FB681800B4
S214009720074B9847031EF9D17B681A6BBB68DA6152
S214009730002300E017231800BD460DB090BDC046BC
S2140097407992000080B584B000AF78607B681B68B3
S214009750FB60C0467B6818000E4B9847031EF9D185
S2140097607B681B79042B04D0082B0AD0002B04D06E
S2140097700AE0FB681B7CDBB207E0FB681B8A9BB237
S21400978003E0FB681B6900E000231800BD4604B038
S21400979080BDC0467992000080B582B000AFEFF37E
S2140097A010833B603B685A425341DBB27B6072B623
S2140097B0BFF35F8F034B00221A707B681800BD460C
S2140097C002B080BDD000002080B582B000AF7860C7
S2140097D07B685A1E9341DBB21800BD4602B080BDBE
S2140097E080B582B000AF78607B681800064B98475B
S2140097F0031E05D0054B01221A70BFF35F8F62B6B9
S214009800C046BD4602B080BDC9970000D00000200B
S21400981080B582B000AF78607B681A687B681B688A
S2140098201B899BB201218B439BB21381C046BD4668
S21400983002B080BD80B582B000AF78607B681B68E0
S2140098409B7A5B065B0EDBB21800BD4602B080BD9D
S21400985080B582B000AF78600A00FB1C1A707B6887
S2140098601B68FA1C1278802149420A43D2B29A72C7
S214009870C046BD4602B080BD80B582B000AF7860FD
S2140098807B681B681B8A9B045B0D9BB21800BD4659
S21400989002B080BD80B582B000AF78607B681B6880
S2140098A01B8A9BB21800BD4602B080BD80B582B050
S2140098B000AF78600A00FB1C1A707B681A68FB1CF5
S2140098C01B7803210B40D9B21389081C03210140E1
