:10400000102C00207D910000799100007991000032
:1040100000000000000000000000000000000000A0
:104020000000000000000000000000007991000086
:10403000000000000000000079910000799100006C
:10404000799100007991000079910000F55300000A
:10405000F15000007991000079910000A9760000EC
:1040600055890000AD5B0000BD5B0000CD5B00002A
:10407000DD5B0000000000000000000079910000FE
:10408000799100007991000075630000856300005C
:10409000956300000000000000000000799100001E
:1040A0007991000079910000FDBE00007991000037
:1040B0000000000010B5064C2378002B07D1054BFB
:1040C000002B02D0044800E000BF0123237010BD84
:1040D000380B002000000000CC5F0100084B10B539
:1040E000002B03D00749084800E000BF07480368D9
:1040F000002B00D110BD064B002BFBD09847F9E7F1
:10410000000000003C0B0020CC5F0100CC5F0100F0
:10411000000000000123044A1371538811885B18C2
:104120009BB253807047C046981B0020024A136818
:10413000013313607047C046E416002083B210B507
:104140007F2B10D88BB23F2B0DD8C001CB100011A4
:10415000C0180723074C1940002A05D0063B8B40A6
:10416000225C1343235410BD01228A40235C9343F5
:10417000F8E7C046E412002010B5054C02220549BC
:104180002000054B984702212000044B984710BDA2
:10419000CC120020154100009D530000D1530000B7
:1041A0001FB500236A466946D3708022084C0293EB
:1041B00003938B70520001330A800B716A460549E4
:1041C0002000054B98472000044B98471FBDC04670
:1041D000CC12002000140040A5520000CD51000078
:1041E00010B5044B9847044B984714210348044BDF
:1041F000984710BDA141000079410000CC12002079
:1042000079530000F8B58025174B9847174CA82024
:10421000A0473F20A047DA20A0471220A047202037
:10422000A0470120A0478120A047CF20A047A6207B
:10423000A0470F4CED002A000E4B002120009847AC
:1042400029000D4F2000B84780220C490C4E402316
:104250000C48B0470C4B0B4898470C4B0C48984700
:1042600029002000B847F8BD9145000049450000ED
:10427000E4120020990D01004D4700003D4100006F
:1042800059920000E8160020B5920000C19200008B
:1042900000520100802110B58EB001AA890311617E
:1042A00001211C4B49425360002391820A31694429
:1042B000CB770CA90B70312169440B703221694412
:1042C00093601373137693620B70D7331386124B7C
:1042D000124CD382C8235B000193114B1149D36167
:1042E000114B20001362114B984707212268D369B4
:1042F0000B40FCD102211068014311601021E488B9
:10430000508B084203D10133A342F9D351830EB03D
:1043100010BDC046480D00001027000044170020C3
:104320000200160000140042020017004D54000065
:10433000042330B500248FB001AA1E4D1370DB1882
:104340009370073B537014741B4B54619461147742
:1043500014625462194928009480947114819472F3
:10436000D472147394735473148554859485984748
:10437000134B1C602B68DA7B52B2002AFBDB022253
:1043800019882800114319800E490F4B9847286857
:104390000E4B98470E4B1A5C1F231A401E3B93404E
:1043A0000C4A136010226B7E13436B762B685A7392
:1043B0000FB030BD50170020DD6300000030004218
:1043C000E41600202D410000F1620000A56300000A
:1043D0004551010000E100E030B50025194BC5B0A2
:1043E0009B6803AA0295039502A9280001939847A8
:1043F000154904A8154CA04704AA28000821144D0B
:10440000A847029A052A02D0039B052B0DD111491A
:1044100004A8A04704AA10210020A84780210E4824
:10442000C9000E4B984745B030BD062A01D0062B77
:1044300001D10B49ECE7072A02D00A49072BE7D143
:104440000949E5E788510100FC500100710E0100A7
:10445000D19300000B510100E41200204D470000F1
:104460001D510100375101002A510100F7B5012506
:10447000234B9847234C2570BFF35F8F62B6224BC6
:104480009847224B9847224B98472570BFF35F8F80
:1044900062B6204B9847204B9847204B98473220D4
:1044A0001F4CA0471F4F00203B68019398470028EE
:1044B00003D11D4B002B00D0984780253220A04708
:1044C0001A4B002098473220A0470223184E194A61
:1044D0002D03756011780B431370174B9847174BDA
:1044E00098473220A047164B9847306A284002D19F
:1044F0003B6B019398470020124B98470220F1E74D
:104500004D910000C8000020AD890000E14100008D
:1045100069B30000054200009542000031430000ED
:10452000198A00008851010000000000799B0000FA
:104530000044004153440041054D0000D9430000B0
:10454000FDB30000159C0000F7B56B460B4E0C4CFC
:1045500031000C4DD87101222000DF1DA8478022B8
:10456000094BD20139005A612000084B01229847BB
:10457000310000222000A847F7BDC046A817002040
:104580006C1700209D5E000000440041355F000074
:10459000F0B55C4B91B098470026122001255A4F88
:1045A00002AC2100594B38707E70BE706570A670E9
:1045B000257098473A785309D109B14200D09FE05D
:1045C0001F2728003A40904002005148DB011B1889
:1045D0009A61C0239B03E3600D236B44D9770C22BF
:1045E0004C4B08A825706160A16021746174A574AA
:1045F000E57421759847484B484EA362484B22000A
:10460000E36201235B4223636363464B4649A36134
:104610003000464B98473468454B20009847074088
:10462000BD40444B1D603368DD69002DFCD1022381
:1046300022680E2013432360012301AC63702370B2
:104640002100324BA570984721001B202F4B984723
:10465000394B28009847394B394998470A2380221B
:1046600058432B4B12055A61002836D1802212057F
:104670009A6100283AD1802212059A61314CA82013
:10468000A0471F20A047D320A0470020A0474020DC
:10469000A047A120A047C820A047DA20A0470220B9
:1046A000A0478120A0478F20A047A420A047A62094
:1046B000A047D520A0478020A0478D20A0471420E8
:1046C000A047DB20A0474020A047D920A047F120E9
:1046D000A047AF20A04711B0F0BD80211A4A49027F
:1046E0005060956014680C42FCD0BFE70021164A68
:1046F000506091608021490210680842FCD0BAE7FE
:10470000B661FFDEAD890000A8170020458A0000D1
:1047100000440041990D0100020010006C170020B8
:1047200002001100002D3101000C0042955C0000D8
:104730008D5B000000E100E0398F0000E9EC000033
:1047400040420F004945000010E000E0F7B50B4D76
:104750000B4C0F000B4E2900019001222000B047A6
:104760008022094BD2019A6101993A00074B20003F
:104770009847290000222000B047F7BDA817002065
:104780006C1700209D5E000000440041355F000072
:10479000EFF3108072B6BFF35F8F0022024B1A70E6
:1047A000434258417047C046C80000200023A12062
:1047B0000D490E4A0B7013800D4A107081385070ED
:1047C0001E38D080E120938053801381094A400233
:1047D00013715371083393710B7810600133DBB29E
:1047E00001200B707047C0465F0B0020EE0B0020CD
:1047F000800C0020580B0020024A1378013BDBB2EA
:10480000137070475F0B0020044A1378013BDBB242
:10481000137013780022024B1A707047600B00204F
:10482000560B0020002070470020704770470000A2
:10483000002805D00122034B1A70BFF35F8F62B6C8
:104840007047C046C80000206021124B1A7850B251
:104850000A4000280DDA0020202A13D15A78212A94
:1048600010D1DA88072A0DD10B499A81996001206D
:1048700008E00020202A05D15A78202A03D0223AC5
:10488000504250417047DA88072AFBD10349196129
:10489000EAE7C046401A0020580B00202D480000CF
:1048A000F7B5344B1B78002B23D1334B9847334E4D
:1048B000334B3488002800D0324B9847844218D0BC
:1048C000314B9847314B324A1C780700E4B2630001
:1048D0009B5A002B16D12F4D2B8801332B80264B52
:1048E0009847002806D12B88632B03D838002A4B21
:1048F0009847F7BD204B9847002803D0274B2A88BC
:104900009A42F3D90022234B1A80254B1B789342FD
:1049100029D1634263411D4ADBB213700123154A5A
:10492000380013701C4B9847194B6700DB5B1D0068
:10493000403D6A1E9541EDB2402B18D00E4B984772
:10494000104B002800D10E4B98473080154AA40127
:1049500014190F4B144ADB5B2900009281202200BE
:10496000124CA047C5E762425441E4B2D6E70023A7
:104970003380EBE77C0C0020816C00007A0C002077
:10498000856C0000956C000091470000780C0020B9
:10499000740C0020540B0020314800001F0300005D
:1049A000F00B0020F40B0020BD490000156F000043
:1049B00010B5014B984710BDA148000010B5002864
:1049C0000CD1074B1B785A425341064A5B00985260
:1049D000054B1870054B1870054B984710BDC04625
:1049E000780C0020740C0020F00B00207C0C0020C0
:1049F000A148000070B5074B9847074B074A1D8830
:104A0000074BADB21B785B009C5A064BA4B298478B
:104A1000601B70BD91470000EA0B0020E40B0020F2
:104A2000E80B00203148000010B5034B9847431EA7
:104A30009841C0B210BDC046F5490000F7B5164B0D
:104A400098471649164B0C781D78E4B2EDB2002D4C
:104A500006D1144E144A630037889B5A9F4203D2F2
:104A6000124B98470020FEBD35806342634101260A
:104A7000DBB20B700A4BA4011E700C4B9847280048
:104A80000B4B98470B4B0C4A0093121940233100F3
:104A90000A4C0220A047E6E791470000E80B0020FF
:104AA000EC0B0020EA0B0020E40B00203148000052
:104AB000294A0000494B0000640B0020156F0000DC
:104AC00070B50024134B144D2C701C70134B1C70CC
:104AD000134B1C70134B1C805C80134B1C80134BBE
:104AE0009847134B1C70134B1C70134B1C805C803D
:104AF000124B1C80124B9847A04209D02B780133EF
:104B0000DBB22B702B78DBB2012B01D10D4A137075
:104B100070BDC0467C0C0020600B0020F00B002014
:104B2000780C0020740C00207A0C0020A1480000B2
:104B3000EC0B0020E80B0020E40B0020EA0B002027
:104B40003D4A0000560B002013B503001000002B57
:104B50000FD10D4A127854426241D2B2002909D1D4
:104B60000A4B92019A180A4B01310093094C4023D9
:104B7000A04713BD084889B252001152074A13706A
:104B8000074B9847F5E7C046E80B0020640B002070
:104B9000494B0000156F0000E40B0020EC0B0020D7
:104BA0003D4A000010B5034B58887F231840024B44
:104BB000984710BD401A00208D700000F0B5164BCC
:104BC0001B78002B01D10020F0BD144B1B681B6823
:104BD0001A798242F7D9124C01262360DA789D783F
:104BE00012022A4300259A189A4203D8002DEAD0CF
:104BF0002360E8E75F78042F0AD19F78874207D1C6
:104C0000DF788F4204D1002D00D023600120DBE744
:104C10001D785B193500E7E7940C0020980C002004
:104C20009C0C0020094B1B681B68DA7899781202EB
:104C30000A439B1802788018984201D3002004E0B0
:104C40004278042AFAD0052AF4D17047980C002043
:104C500070B5104B05009847002801D1002070BDA9
:104C60000D4B1C6820000D4B9847041E0AD042795A
:104C7000037912021A43C178094B807898470028BB
:104C8000F0D1EBE7074BAD001B685B68EB581B6886
:104C90009847E4E7BD4B00009C0C0020254C000029
:104CA000F96C0000980C002070B50021104D040034
:104CB000A847002802D10025280070BD0D4BA20096
:104CC0001B685B68D658F368984701002000A84726
:104CD000051EF0D0084B1C682000084B9847041EA6
:104CE00003D08078064B9847F6E773689847E3E768
:104CF000BD4B0000980C00209C0C0020254C0000AF
:104D0000A56C000010B5014B984710BD3D71000027
:104D100070B50B4D00242B78002B0AD10023012203
:104D20002B70084B1A8070BD2000074B9847013448
:104D3000E4B2064B1B681B681B79A342F4D8EDE76D
:104D4000940C00208A0C0020A94C0000980C002034
:104D500010B50B4B00241B78002B09D110BD5B68EC
:104D6000A200D3581B69002B00D098470134E4B24D
:104D7000044B1B681A681279A242F0D8EEE7C046CD
:104D8000940C0020980C0020F8B50023AE4CA381B1
:104D900023616361237858B2002805DAE288002A8B
:104DA00002D100252800F8BD602119401ED11F2224
:104DB000002800DBB2E0E588002D17D0134074D145
:104DC0006378062B0BD0082B68D0002B0ED1022D58
:104DD00012D129009D489E4B98470125E2E7638840
:104DE0001D0A022D3DD029D8012D34D01F22237851
:104DF0001340012B00D14FE11F2223781340022BD7
:104E0000CFD1944B00241B78002BCAD0924B1B6847
:104E10001A681279A242C4D95B68A200D558EB681F
:104E200098478E4B0100200098470028B9D0AB6806
:104E300098470028D1D10134E4B2E7E7032D27D009
:104E40000F2DD3D1864B98680028D5D0C1788378B0
:104E50000902194302E0824B186801787C4B98479D
:104E600010E07F4ADBB21168497C9942C4D952688C
:104E7000DB009858C178837809021943744B98472E
:104E8000A3685D70E388A2899A42A6D9A381A4E7AA
:104E9000DBB2002BAAD104217248DFE7012DABD190
:104EA00029006C486A4B98477CE7012B21D1637835
:104EB0000A2B9BD1012D00D0EEE0664B1B78002B16
:104EC00000D1E9E0644B26791F683B681B79B34247
:104ED00000D8E1E03000614B9847051E86D07B6822
:104EE000B600F358DB6898475F4B01211870180033
:104EF000D8E7022B00D079E76378002B00D075E764
:104F0000022D00D078E7594B20799847584B29005B
:104F1000188018004E4B9847013D43E7134053D18A
:104F200060780138082800D960E709F0C9FE100050
:104F30005FFF5FFF5FFF09005FFF5FFF5FFF1E0016
:104F4000E388002B00D057E74A4B236145E7E3880D
:104F5000002B00D050E76588012D00D04CE70221DE
:104F60003A4A13888B4313801CE7E588002D00D054
:104F700042E7414B9847002800D137E7384FA278E5
:104F80003B685B7C9A4200DD30E73C4B9847A37856
:104F9000304A1370002B00D11FE7394A2E4E9B1860
:104FA0007A68DB00D318336033681B681B79AB4227
:104FB00000D812E700212800324B9847002800D182
:104FC00014E70135EDB2EFE7012B1AD163780B2B13
:104FD00000D00BE7E388002B5ED11E4B1B78002B23
:104FE0005AD02679284B300065889847002800D190
:104FF000FCE6E9B23000234B9847002800D0ECE6ED
:10500000F4E6022B00D0F1E66378012B10D0032BDD
:1050100000D0EBE6E388002B00D0EDE66388002BA0
:1050200000D0E9E62079194B98472079184B09E020
:10503000E388002B00D0DFE66388002B00D0DBE69E
:105040002079144B9847D8E7401A00208A0C00209A
:10505000AD700000940C0020980C0020BD4B0000A7
:1050600028000020A8000020900C0020C56D000042
:105070008C0C0020A54B00009D700000114D00001D
:10508000FFFFFF1F514C0000A94C0000456C0000C1
:10509000D96D0000D96E0000124B1B78002B00D197
:1050A000AAE6114B25791E6833681B79AB4200D8FC
:1050B000A2E6002128000D4FB847002800D19BE64A
:1050C0007368AA00D658F368984701002800B847CB
:1050D000002800D190E6B3689847002800D07CE60D
:1050E0008AE6C046940C0020980C0020BD4B0000BE
:1050F000002370B501250B4C237023780F2B00D9AA
:1051000070BD29009940084A1069084206D0116113
:10511000064A9B009B58002B00D098472378013308
:105120002370EAE7B017002000180040B4170020F1
:10513000014B5878C009704700180040022310B591
:10514000044A11780B431370034B98470028FBD196
:1051500010BDC0460018004031510000402307B583
:10516000104A052091690B439361002301A90B703C
:105170000D4B98470D4B0520984701230C4A117899
:105180000B4313700B4B98470028FBD102000A4BCE
:105190001A5004304028FBD11022084B1A60084BEB
:1051A000984707BD0004004049900000C18F0000EF
:1051B0000018004031510000B417002000E100E069
:1051C0003D5100000368987AC0097047082270B505
:1051D0000500064B04681A602800054B9847002814
:1051E000FAD1022322881343238070BD00E100E03E
:1051F000C5510000082270B50500084B0468DA6745
:105200002800074B98470028FAD1C1230222A37136
:10521000237223889343238070BDC04604E100E0DD
:10522000C551000070B5084B04000568984700237D
:10523000A382E3822000054B98470028FAD101237E
:105240002A8813432B8070BDF5510000C551000022
:10525000F8B507000E001400056838000F4B98479A
:105260000028FAD13A79002A0BD01A23012A06D154
:105270001723012C03D803000634A400665118003C
:10528000F8BD1723022CFAD805498E42F7D80C3402
:10529000B6B2640066531300F1E7C046C551000082
:1052A000FFFF00002023F7B515002C4A016091692B
:1052B00004000B439361022301A90B700420284BC7
:1052C00098470420274B9847274B20009847AB78F6
:1052D00023712B796371254B1C602B8826683380E2
:1052E000AB78002B1FD01720012B1BD133889BB22A
:1052F0003380EB78002B03D0802332881343338034
:1053000020001B4B9847021EFAD1A9682000194BB8
:10531000984700202B79834204D080237288DB01D8
:1053200013437380FEBD0423328817201343338058
:10533000EB78002BF6D120000D4B9847021EFAD1D6
:10534000A96820000B4FB8472000094B9847002858
:10535000FAD10122E9682000B847DAE700040040EA
:1053600049900000C18F000025520000F417002072
:10537000C55100005152000070B5037904000D00C2
:105380001520002B06D126682000034B98470028E3
:10539000FAD1B58270BDC046C5510000022A07D0BF
:1053A0000379002B0FD0012B0FD11633012A0DD812
:1053B000931C9B00195001239340818A0B439BB29D
:1053C0008382002302E0022AF2D9172318007047D3
:1053D00010B502688023022903D0012303248B40E7
:1053E0002340D37101238B40C28A13439BB2C382F3
:1053F00010BD000070B5114B1B68D98A1C689A8AD1
:10540000207A0A40E179014048B2002806DA5207C2
:1054100001D51B6998478023237270BD012529425D
:1054200005D02A4201D09B6898472572F5E70225EE
:105430002942F2D02A42F8D0DB68F5E7F4170020C1
:1054400007230168CA691A42FCD170470300F0B50E
:1054500001278DB019600290924B080016000D00D4
:1054600098473C00831C9C4023008F4A1430116AEB
:10547000C4B20B431362337B0AAA137011002000DD
:105480008A4B984720008A4B98478A4B307B0021F3
:1054900098472B681C209B0700D5F6E02C6817382E
:1054A0003C4000D0F1E014232B60029B0BAD1B6845
:1054B000019318007B4B984780230690F0696C702D
:1054C000EC702B70AF70346A002803D101007A4B66
:1054D0000198984702232870000C6B70C0B2290015
:1054E000764B9847002C04D101210198724B9847C4
:1054F000040002272C70240C704BE0B229006F705E
:105500009847B38A029AD380F38A1381327E80232C
:10551000002A05D16A4B9B783B405F1EBB41DB01F3
:10552000B268376917431F43731DDB7F002B02D01E
:105530008023DB051F43B36A1F4333002C331B78E2
:10554000002B03D180239B049A4202D180231B05A8
:105550001F4333002D331B78002B02D080231B0404
:105560001F4333002E331B78002B02D08023DB0334
:105570001F43019B06981B68019A1F43019B14302F
:105580001F608023FA275B005360C0B24D4B9847E1
:105590003368BF005F437368069007934A4B984790
:1055A000494B029003917800984704900591464B2F
:1055B000308E9847454C0890099102980399444AC7
:1055C000444BA04702000B0008980999A04700220D
:1055D000414C424BA0473C4B040038000D0098471B
:1055E00002000B0020002900384CA0473C4D02006F
:1055F0000B0002980399A847049A059B364CA047D4
:105600000022384BA847049A059B374CA047374BDC
:1056100098478023B26807009B049A423ED1FA2340
:10562000079C9B005C43029A039B2B4E10001900C1
:10563000B047254B029003912000984700222C4B45
:10564000224EB047284E02000B0002980399B04743
:105650000022244BA847254B9847264B061E16D000
:105660002100069898470238831B4020FF2F0CD852
:10567000FF2B0AD8FF203D0000041B04034000203C
:1056800036063543019A2B43D3600DB0F0BD61005F
:10569000069A481E80189847431EE6E70026330006
:1056A000E3E7C0461D5B0000000400404990000095
:1056B000C18F0000ED590000315A00001D9100001B
:1056C0000020004165900000B90B01002500010099
:1056D00095D626E80B2E113E9DF3000000002440D5
:1056E000250501000000F03FBDF90000510B01004D
:1056F00000000840E9EC000002220368197E114214
:1057000006D01A765B8B412013420AD1002008E0B4
:105710005A8B5207FAD5C0221820596892020A43C0
:105720005A60704770B500220126022401680B7E82
:10573000334002D10D7E254201D0002005E0013228
:10574000038992B29342F2D8122070BD802310B523
:105750000468DB026268134363606162024B98472E
:105760000123237610BDC04625570000F0B504681C
:1057700085B0236801901B01DB0F4D8803934B7AA2
:105780000E00002B02D0897A474B98476368474F39
:105790003B406360727A3388317A92035B00134333
:1057A0000122002919D0802212021343636201985A
:1057B0003F4B984763683B406360002863D1019882
:1057C0003C4B984700285ED178233288717A120AC0
:1057D0001343012289035B000A4313436362019868
:1057E000334B9847039B0200002B17D07388012B83
:1057F00014D180236168DB020B436360002A42D12D
:1058000001982C4B984700283DD1013DAFB20500CF
:10581000294B9F4206D10295002520E063681F4076
:105820006760EBE72022638B13423AD0019BDB7A5F
:10583000002B04D0039B002B27D1002F27D00198E9
:105840001E4B98476B1C9BB20293230028331B7896
:10585000726801985355164B9847051E1DD0019B41
:10586000164F9B7A002B06D00198B847C023626878
:105870009B02134363600198B847280028342278BC
:10588000736802995A5405B0F0BD012FD7D1802218
:105890006368D202134363600295013FBFB2029D69
:1058A000B6E74120EFE7C0464D570000FFFFFBFF82
:1058B00025570000F9560000FFFF0000415400008A
:1058C000F7B50F004B88050001932A4B04689847F1
:1058D0007B7A002B03D0B97A2800274B984763685E
:1058E000264A134063607A7A3B88397A5B009203D8
:1058F0001343002902D0802212021343636228005E
:105900001F4B9847061E15D128001E4B9847061EB0
:1059100010D10090009B019A93420DD10026AB7AE2
:10592000002B07D0134B28009847C02362689B02C6
:10593000134363603000FEBD2022638B134216D0F8
:1059400028000C4B98477B68009A28009A5C23003B
:1059500028331A700A4B9847061EE0D1009A638BD1
:105960000132009204221342D4D01E26D7E74126EA
:10597000E0E7C046415400004D570000FFFFFBFF29
:1059800025570000F9560000012310B58372C37239
:10599000014B984710BDC0466D570000012310B55C
:1059A0008372C372014B984710BDC046C1580000B6
:1059B000002310B583720133C372014B984710BDA9
:1059C000C158000010B54908040000234020A1423E
:1059D00001D210BD0300581C091B80B28C42F9D9BA
:1059E0004020FF2BF5D813800020F2E737B50D4C8F
:1059F00005002378002B01D000290CD001A9132029
:105A0000094B0D7098471320084B9847012300203D
:105A1000657023703EBD63780800AB42FAD01D204C
:105A2000F8E7C046A00C002049900000C18F00009C
:105A3000274A030000B50800934220D004D8254A25
:105A400093420ED0002314E0234A934224D0234AE9
:105A50009342F7D1002303290BD809F027F9362AFE
:105A60002C2E0023032904D809F020F92902050768
:105A70001B4B180000BD1B4BFBE71B4BF9E700233A
:105A80000329F6D809F012F91D020406174BF0E7B6
:105A9000174BEEE7174BECE700230329E9D809F091
:105AA00005F912020406144BE3E7144BE1E7144B2B
:105AB000DFE7144BDDE7144BDBE7144BD9E7144B5E
:105AC000D7E70323D5E7134BD3E7134BD1E7C04602
:105AD000000C004200080042001000420014004286
:105AE0000300050003000600030007000300010097
:105AF00003001E0003001F000300090003000A004A
:105B000003000B0003001100030012000300130048
:105B10000300040003000800030010007FB569467D
:105B2000094B6A4670CB70C11B680B60002399005B
:105B30005158814202D1D8B204B070BD0133042B58
:105B4000F5D10020F8E7C046585101007047000029
:105B500070B50A4E0A4B3278002A0BD1094C0A4D17
:105B600022606260A260E26001321D605D609D6043
:105B7000DD6032708000195070BDC046A20C00205C
:105B8000A40C0020F81700204D5B0000092313B57A
:105B900001AC2370013363700133A3700133E370F0
:105BA000014B9847205616BD1D5B000010B5024BF7
:105BB00000201B68984710BDA40C002010B5024BB4
:105BC00001205B68984710BDA40C002010B5024B63
:105BD00002209B68984710BDA40C002010B5024B12
:105BE0000320DB68984710BDA40C0020002210B5EC
:105BF0004309C409944202D1DA01064BD2181F238B
:105C000018401E3B8340002901D0936110BD5361B1
:105C1000FCE7C046004400410368187E8007C00FBF
:105C200070470368187E0123184070470368187E88
:105C30004007C00F7047000070B5064B0C000568A8
:105C400098470523002803D00023E405E40DAC6247
:105C5000180070BD235C000070B50D4B06000C00F1
:105C600005689847102200280DD00423698B002274
:105C7000194201D06B831E32B379012B05D1AB6A77
:105C8000DB05DB0D2380100070BDAB6ADBB2F9E7EA
:105C90002D5C0000F0B50500296014000A6889B089
:105CA0000E001C23920700D5D4E001270B683B406F
:105CB0000193019A0523002A00D0CBE008006A4B2B
:105CC0009847811C8F40694B14301A6A17431F6232
:105CD000631DDB7F02AAC7B2137011003800644B4A
:105CE00098473800634B9847631DD87F0199624BF2
:105CF00098472378012B03D132680B331343336069
:105D00002378002B03D132680833134333602B0010
:105D10002A0000260C33283240C39A42FCD12B00C3
:105D20003633AE86EE622E86AE621E705E709E7058
:105D3000032328686B724C4B2E71984707004F4B1A
:105D40004F4998474F4BBF00FD50802302AA137163
:105D50000123937123782F685671D671002B00D1DF
:105D600096710026A36A0493E36A0593236B069356
:105D7000636B0793B30004AA9858F1B2002802D1CC
:105D80003800414B9847431C06D002AB1871000CF9
:105D9000C0B203A93D4B98470136042EEAD12378BF
:105DA0006B71237CAB71A37CEB71237D2B7202ABF7
:105DB0009E1C002333802378012B10D12A4B2868A6
:105DC00098471430324BC0B29847324B0100320032
:105DD000A0699847172300283CD133783B73237878
:105DE000002B3DD1E17FA57F7B6A0904294319433C
:105DF000A069A28B631C7962DB7F002B2DD113007D
:105E0000A16862680A43E1680A43217C02430B43AC
:105E1000617C002903D120498978890701D5802137
:105E20000A43A17C002902D0802189020B43E17C36
:105E3000002902D0802189000B43217D002902D056
:105E4000802189010B4339680A433A607A68134319
:105E50007B600023180009B0F0BD40231343CFE757
:105E600000231800CCE7C0461D5B00000004004082
:105E700049900000C18F0000ED590000515B000007
:105E8000F5600000F8170020315A00001D91000055
:105E900065900000C559000000200041F0B543792D
:105EA00085B005000E00140000931520012B04D1CD
:105EB0002B7A0193002B02D0002005B0F0BD184FC3
:105EC000002A27D04C78002C20D0164B2800984769
:105ED00003003078002B03D10099B8470520ECE788
:105EE0000199B847104BB17828009847EB79002BFF
:105EF000E2D128000D4B98470028FAD0002402ABCD
:105F0000991D28000A4B0C809847D5E70878210096
:105F1000B847D1E708780099B8472000CDE7C046D8
:105F2000ED5B0000235C0000395C00002D5C00008C
:105F3000595C00000300F0B50400052087B0029111
:105F400038331B781500834232D01230002A2FD00C
:105F50006379002B07D120005F4B9847002802D0BF
:105F600002232268137600260195013DADB25B4AFB
:105F70006379954208D1012B00D187E06379002B2A
:105F800000D189E0002013E0002B1AD1544F2000EB
:105F9000544B9847002802D1013F002FF7D1200031
:105FA0004D4B9847002805D00222042023681A761A
:105FB00007B0F0BD20004B4B9847002801D11230AC
:105FC000F6E72000474B98470028FAD0029A731C46
:105FD000915DA2799BB2012A40D01E0089B2424B4A
:105FE00020009847E2796B1E9BB2002A4CD063795F
:105FF000002B24D13A4B0393002D12D02000394BB3
:10600000984700280DD0029B771C995DA379BFB2F9
:10601000012B2AD089B22000334B98473E00013D26
:10602000ADB22000314FB847002825D020002A4BC0
:1060300098470028B8D12000B847002822D0200077
:106040002A4B98470028FAD004AB991D2000284B12
:106050009847019B013B9BB2019386E7029A023667
:10606000D35CB6B21B021943B9E7029B0236DB5D73
:10607000B7B21B021943CEE7039B013B0393002BEE
:10608000BAD1D3E7122093E71D0070E72000124B2E
:1060900098470028FAD071E7E379002B00D171E727
:1060A000019B002B00D16DE70D4D20000F4EB04736
:1060B000002802D1013D002DF7D12000B047002873
:1060C00000D17CE704AB991D2000094B9847019B48
:1060D000013B9BB20193E3E7195C0000FFFF000066
:1060E00011270000235C0000395C00002D5C0000DB
:1060F000595C0000F8B57C4B8000C4582300220096
:106100003733363225681B7816781E402B7EAF7DDC
:106110001F40FB0739D562791300012A33D1637A16
:10612000002B0DD1714B1B88AB62638E013B9BB280
:106130006386638E002B00D12A756379012B22D1EF
:10614000637A002B21D0E16A2268481C0B78E06258
:10615000A079DBB2012800D174E09BB2DB05DB0D36
:106160009362A38E013B9BB2A386A38E002B0CD11E
:1061700001332B75637A012B07D1E379002B04D10E
:106180000233AB7501E0002BDAD004210F4215D0A9
:106190006B8B0B425CD0637A012B0CD023001E2248
:1061A00038331A700323637202332B75330702D519
:1061B0002000A3699847AB6A04236B83022217422D
:1061C00027D06379002B0ED1072129752A76013259
:1061D000627222003832A38623861370F30602D53A
:1061E0002000E36998476379012B12D1637ADBB20F
:1061F000012B0ED1E279002A0BD102212975013140
:106200006172210038310A701E4202D02000E3681A
:10621000984708231F4209D06279002A06D12B75BE
:106220002B76B30602D52000236A98477FB2002F51
:1062300007DA80232B752B76730602D5636A20005C
:106240009847F8BD4878023100020343E16285E7D0
:10625000627A2368D2B29B6A012A13D1638E013B12
:106260009BB26386638E9BB2002BA7D12975210058
:1062700038310B700333637216429FD02000E368FD
:1062800098479BE7DB05A16ADB0DDAB20A70A26AC8
:10629000511CA162A179012904D11B0A5370A36A80
:1062A0000133A362238E013B9BB22386238E9BB2D4
:1062B000002B00D082E722003832137004332B7594
:1062C000627A022A05D11E4200D177E72000636975
:1062D000D6E7637A002B00D070E7B30700D46DE7F0
:1062E00020002369CCE7C046F817002008180020DA
:1062F000931C9B001950037E022A04D10E321343D3
:10630000037600207047032A01D11D32F7E70121EF
:1063100091400B43F4E7000070B50126144B800058
:10632000C4582368227E657E9B7B15401D40354204
:1063300004D0A3682000984723689E730226354244
:1063400004D0E3682000984723689E7310263542E6
:1063500004D023692000984723689E732026354285
:1063600004D063692000984723689E7370BDC046BF
:106370000C18002010B50020014B984710BDC046F6
:106380001963000010B50120014B984710BDC046AD
:106390001963000010B50220014B984710BDC0469C
:1063A000196300007FB50C4B0100180001AA70C8EA
:1063B00070C2019A91420AD05A68914209D09B68F2
:1063C00000208B4201D10230C0B204B070BD002069
:1063D000FAE70120F8E7C04668510100F0B58B4BA1
:1063E000050087B0080014000E0098476A461B237A
:1063F000137201335372937280231B011382802323
:106400005B01538280239B0193820023AB60EB608E
:106410002B616B612B766B767D4B8200D5502E60A5
:10642000A3780700082B03D11720FA0700D4D5E082
:1064300001222B7133880520134200D0CEE0F37B7C
:106440001730DB0600D5C9E0022133880B4000D0AD
:10645000C4E0217C002908D003A9CB70237E207DD5
:106460000B706C4B8A704A709847237F002B0ED0BC
:106470000022012303A9CA7024328B70A2184B702A
:106480001F33E31812781878624B0A7098477A0025
:10649000944668461022801862465F4B825A196AF9
:1064A0000A431A62A278082A0AD1791C4A00944643
:1064B00010216A4652186146186A525A02431A62FB
:1064C000237801A90B7008226B469B18DF5D534BA4
:1064D00038009847524B380098472389A288A17901
:1064E0001A43A3780B4313436278002A02D0802218
:1064F000120113432968CA7B52B2002AFBDB3380A6
:10650000637B5A1E9341A27B9B00002A01D001228B
:1065100013432968CA7B52B2002AFBDBFF22327187
:10652000002B05D02968CA7B52B2002AFBDB7371AD
:10653000E37AA27A002B01D010231A43237B002B8D
:1065400001D020231A432968CB7B5BB2002BFBDBF5
:10655000B2712B68DA7B52B2002AFBDB2A79042A5B
:1065600019D0082A3CD01720002A37D1DA7B52B242
:10657000002AFBDB238D33822A68D37B5BB2002B9E
:10658000FBDB638D33832A68D37B5BB2002BFBDBA1
:10659000A38D738321E0DA7B52B2002AFBDB230058
:1065A00028331B7833742A68D37B5BB2002BFBDB68
:1065B000230029331B7833752A68D37B5BB2002B09
:1065C000FBDB23002A331B7833762A68D37B5BB24C
:1065D000002BFBDB2B3423787376002007B0F0BD53
:1065E000DA7B52B2002AFBDBA36A33612A68D37BD1
:1065F0005BB2002BFBDBE36AB3612A68D37B5BB23F
:10660000002BFBDB236BF361E7E7C046A5630000CB
:106610000C1800201D91000000040040499000006B
:10662000C18F00000368DA7B52B2002AFBDB0279DB
:10663000042A07D0082A08D00020002A04D1188A8A
:1066400080B201E0187CC0B270471869FCE7000016
:10665000EFF3108072B6BFF35F8F0022024B1A7007
:10666000434258417047C046C80000207F22024084
:10667000131E09D00F2303405B00C0091818142310
:1066800002385843014B1B1818007047BC0C0020FF
:10669000F0B58D7985B06AB20E00544B2800002AFF
:1066A00048DA0F2798472F400197038A81680293A1
:1066B0007688C3680400F618C660877C8E4225D0B1
:1066C0008D1B4B4BADB29D4206D918000299494B28
:1066D0009847474B5D1AADB20021BB0707D5464B23
:1066E0000299280098478BB259425941C9B20222F7
:1066F000A37C4900934319432B006268A17492194B
:1067000001993E483E4CA04705B0F0BD0223380039
:10671000184005D062689F43A77492190023EFE7E1
:1067200001239F432368A774002BEDD02A0031007A
:106730009847E9E798470F232B400293038A040008
:106740000193837C37885B0711D5C2684368944600
:10675000634403930199284B80689847029B0A0081
:10676000013B28499B0159180398274B9847E36838
:10677000FA18A368E2609A4200D9E360B288BA428C
:1067800027D1E668B34224D09D1B194FADB20199C1
:10679000BD4216D9174B380098477B1A019A9BB215
:1067A00016481A4F9A4211D90423A27C1343A374AA
:1067B000029B5A1E134B9201D218019B0299B847B3
:1067C000A2E70D4B280098476B1AE7E76268921919
:1067D000F4E70122A37C9343A3742368002B00D128
:1067E00092E72A00E1680020A2E7C0466D6600003B
:1067F000FF1F0000C9EF0000F5ED0000D8180020D1
:10680000D175000018180020150D01001D7600003C
:10681000052210B5054B064C1A7020008021054B4F
:10682000984700212000044B984710BDBA0C002067
:10683000D8180020577500007175000037B50400A6
:106840001D4B98478023226801AD937228001B4B93
:106850009847032329006B702000194B984719496A
:106860002000194B9847194D194B02220021200096
:10687000A8470022174B11002000A847164B012201
:1068800000212000A847154D022200212000A84722
:10689000002220001100A847012200212000A84763
:1068A00021680F4A0B891A408023DB001343002222
:1068B0000B810C4B1A7037BD114D00006D73000039
:1068C0007D730000581A00206576000005720000F4
:1068D0004D6A0000056E0000256900005572000039
:1068E000FFF3FFFFBA0C0020032210B5074B084C42
:1068F0001A7008492000084B98470023074A1900DE
:1069000092682000064CA04710BDC046BA0C00207B
:10691000D8180020581A002065760000401A002080
:10692000D175000010B589790C4B4AB2002A0BDAF8
:106930001B78012B02D10A4B984710BD042BFCD1C8
:106940000848094B9847F8E71A78022A02D1023220
:106950001A70F2E7032AF0D1F2E7C046BA0C002021
:10696000E9680000D81800205775000070B51D4D6B
:106970001D4E2B88B489E41AA4B2002C1BD11B4AEB
:1069800011885B189BB21380F2889A4203D0184B8F
:106990001B78002B07D00422164B17491A70174892
:1069A000174B984770BD7369002B16D09847002885
:1069B00013D02C80B4893F2C0FD9002240240C4BDB
:1069C0001A702B88B2680021D2180C4823000D4E93
:1069D000B0472B88E4182C80E4E70122044B1A709E
:1069E000EFE7C046B60C0020401A0020B80C00208B
:1069F000B40C0020BA0C0020581A0020D81800202F
:106A000065760000D175000010B5014B984710BDA8
:106A1000514D00000122034B1A70BFF35F8F62B625
:106A20007047C046C8000020074B9A8C920605D4D8
:106A3000D021DA680A40D02AFBD170471022D968E9
:106A40001142FCD0F9E7C0460008004070B5274E5F
:106A50000C003378002B06D0254B1B69002B00D08F
:106A60009847002333702388082B02D0214B984786
:106A700070BD214C1E4D23782B7063786B70E278CB
:106A8000A37812029B186B806279237912029B18FB
:106A9000AB80E279A37912029B18EB80174B9847E1
:106AA0000028E3D02B787F2B0DD90021144B220036
:106AB0001980144B144819800223144C33703E3350
:106AC000A047134BD3E7EB88002B01D1114BCEE746
:106AD00000210B4B220019800A4B0C4C198001231A
:106AE000094833703F33A047C2E7C046BA0C0020C4
:106AF000401A002011680000581A0020894D00003B
:106B0000B80C0020B60C0020D81800201D7600001C
:106B10006D690000E96800000023F0B585B003ACA2
:106B2000237003336370013BA370013BE370164B8A
:106B300005001B780193834224D000280ED0265CE8
:106B4000124FBB5DFF2B00D1FEE7114B9847BB5D99
:106B50000133BB55002801D00E4B9847019B002BF9
:106B60000ED0E45C094E335D002B00D1FEE7084BEC
:106B70009847335D013B3355002801D0054B9847BA
:106B8000014B1D7005B0F0BD340D0020AB17002087
:106B900051660000156A000070B5084C084D0621CA
:106BA0002000A84704212000A84702212000054B0F
:106BB00098470220044B984770BDC046D818002063
:106BC000E9710000C9710000196B000070B50B4B32
:106BD00098470B4C0B4B0221200098470A4D04218B
:106BE0002000A847094A0A4B0621200098470621A1
:106BF0002000A8470320074B984770BD296A000072
:106C0000D8180020E9710000C9710000996B0000DC
:106C1000A5710000196B000010B5064C042120007E
:106C2000054B984702212000044B98470120044B54
:106C3000984710BDD8180020E9710000C971000004
:106C4000196B000070B5040001000A4B0A48984710
:106C50000A4B200098470300827C0120024207D0A3
:106C60001D6882439A74002D02D02200D968A8477B
:106C700070BDC0460D750000D81800206D6600007C
:106C800000207047024B1B68188A8004400D704733
:106C9000D8180020024B1B68188A80B27047C04683
:106CA000D8180020F7B50400002701AD28000C4BD0
:106CB000984720000B4B98470B4E290030000B4B98
:106CC000EF702C7098470F213A0021403000084B9C
:106CD00098473A0030002100064B9847F7BDC04660
:106CE0006D730000456C0000D81800207D73000013
:106CF0002D720000E1720000F7B5060001AC294BCF
:106D000020000F001500984726700023082D10D989
:106D10000123102D0DD90223202D0AD90323402D44
:106D200007D90423802D04D980235B009D4224D8F9
:106D3000FB3B637030001C4B9847032305821F40C8
:106D4000012F28D1013B194DE37021002800184B79
:106D50009847041E1BD10F21164B0200314028001A
:106D6000154FB84722003100144C2800A0470122DB
:106D700031002800A04701200AE080239B009D42AB
:106D800002D8FB3BFF3BD4E70D4B9D4201D90020CD
:106D9000FEBD0723CDE7022FD5D0032FF7D1042363
:106DA000D1E7C0466D7300006D660000D818002062
:106DB0007D730000916600000572000055720000AE
:106DC000FF03000010B50100014B0248984710BDB9
:106DD00039750000D81800200F2310B503400400B7
:106DE0000020032B07D821000348044B98472000BC
:106DF000034B9847012010BDD8180020577500009C
:106E0000456C0000F8B5294F3B78012B41D1284A49
:106E1000284D0E881488AB89A219934201DA1E1BF3
:106E2000B6B2AB68320018192349244BA41998470D
:106E3000A3B21F4C2380402E05D1214EE988328811
:106E4000D21891420FDCAB816B69002B08D09847B8
:106E5000002805D1052300203B701A4B9847F8BD48
:106E6000194B9847FBE7AA899A420BD16B69002B13
:106E7000F0D098470028EDD0338822889B183380C3
:106E80000023238040230C4A0021104C1048A047C7
:106E9000E5E7022B01D10F4BE3E7064B1B69002B03
:106EA00000D0984700233B70D9E7C046BA0C0020B9
:106EB000B60C0020401A0020581A0020150D0100C1
:106EC000B80C0020D96D0000E96800001D760000B4
:106ED000D81800206D6900000F2370B5034006002C
:106EE0000024032B0ED8084B98470500074B3100B0
:106EF00007489847AB7C0134234203D0A343AB74CB
:106F00002B689847200070BD6D6600007175000009
:106F1000D8180020F0B585B003921E0002000F23A0
:106F20001A4002900D000192032A03D9002738006D
:106F300005B0F0BD02984A4B9847071EF6D1494B61
:106F4000029898470400484B98470123A27C1A42B4
:106F500004D00028EAD0454B9847E8E71343A374D0
:106F6000002801D0414B9847039B02226360002315
:106F7000E3600A9BA660236001231D406900A57C95
:106F800095430D4304218D436946097AA57449B29E
:106F900000293BDAEDB2002E26D0354BB6B29E4228
:106FA00006D91800218A334B9847314B5E1AB6B286
:106FB000AB0707D5218A30002F4B984789B248424A
:106FC0004841C7B20120022338404100A07C9843C9
:106FD0000843A0743300039A01992848284CA0471D
:106FE00043425841C7B2A2E7154202D09543A57467
:106FF000F0E79D43A5740A9B002B01D1012796E77A
:107000000021029A08000A9B9847F7E7002E22D039
:10701000278A174DB6B23900AE4216D9154B280053
:1070200098476B1A9BB21548164D039ABB4209D27A
:107030000423A27C1343A374019B5A1E124B92019A
:10704000D2183B000199A847CAE730000A4B98477D
:10705000761AB3B2E7E7A27C9A43A274CBE7C046A4
:10706000C56D00006D66000051660000156A0000E5
:10707000FF1F0000C9EF0000F5ED0000D818002048
:10708000D17500001D760000181800208022024BE8
:1070900010431B6898727047D8180020024B1B6879
:1070A000987A4006400E7047D8180020014B98602F
:1070B00099817047401A0020F8B501270320164B2C
:1070C0009847164C164E2268042113892000BB43B2
:1070D0001381144AB047144A00212000B0473900F8
:1070E000124A2000B047124A02212000B047114D39
:1070F00004212000A84700212000A84739002000D3
:10710000A84702212000A8470B4A06212000B047CB
:1071100006212000A847F8BD196B0000D8180020F0
:10712000A5710000196C0000096A00003D680000AC
:10713000CD6B0000C9710000996B000073B50F4B57
:10714000984701AC06000E4B2000984700230D4DD8
:1071500022000D49A37028000C4B984728000C4BC7
:1071600098470C4B98470C4B012098470B4B98477E
:10717000002E01D00A4B984773BDC04651660000EF
:10718000817A0000D818002000500041917A000058
:1071900095760000296A0000196B0000B9700000A4
:1071A000156A00000B002E339B0010B51A50AA225E
:1071B000044C52004900835A095B0B438352002060
:1071C00010BDC04674510100064B4900CB5AAB219B
:1071D000026849009383425A1A43425202680020CF
:1071E0001383704774510100054B4900CA5AAB2103
:1071F0004900435A93434352036800209A827047E0
:107200007451010010B58C00A4183434A400041982
:107210004018593004496360FF3003788A5C134397
:107220000370002010BDC046825101008B009B18E6
:10723000343310B59B000400C31800206418586054
:107240005934034BFF349A5C23789343237010BD69
:10725000825101000F2370B50B40C41861341F4EDA
:10726000FF342578B65C35432570002A0FD10268BB
:10727000002B03D1FF320333937221E05B01D2185C
:1072800049B2FF3202230029F6DB0123F4E7012A89
:107290000ED10268002B02D1FF320C33ECE75B0108
:1072A000D21849B2FF3208230029E5DB0423E3E7C3
:1072B000022A07D102685B01D3181022FF339A72A9
:1072C000002070BD032AFBD102685B01D21849B2CD
:1072D000FF3240230029CFDB2023CDE7825101007C
:1072E0000F2370B50B40C4181F4D6134FF34AE5CE2
:1072F0002578B5432570002A0FD10268002B03D1F1
:10730000FF320333537221E05B01D21849B2FF32DE
:1073100002230029F6DB0123F4E7012A0ED10268DB
:10732000002B02D1FF320C33ECE75B01D21849B2DB
:10733000FF3208230029E5DB0423E3E7022A07D113
:1073400002685B01D3181022FF335A72002070BD0F
:10735000032AFBD102685B01D21849B2FF324023F5
:107360000029CFDB2023CDE78251010000230370E9
:10737000437083700133C370704700000F23F0B572
:1073800004000D78C8782B406DB2042860D82268BC
:1073900007F08CFC030849879D00002008335B013F
:1073A000D054F0BD5E019219FF3255781C206D0754
:1073B000F7D1702557782F42F3D10B3850702268DF
:1073C00008335B01D2182F3050712268D318802205
:1073D0001A718A784B4B002A1BD080209A19546866
:1073E00000060443546054692043506107254A78DD
:1073F0009B195868444C2A4012072040104358609B
:1074000049785A692940090722400A435A610020F5
:10741000C7E7981942685200520842604269520018
:1074200052084261E2E758011218FF32002D27DAB4
:10743000702657781C203742B3D156780430304339
:107440005070180022680830400112188020107116
:107450000724ED0F5B002B4A5B1948781B01D318FA
:107460005A682040284C0007224002435A6088781E
:10747000002842D08022596812060A435A60C6E7A3
:1074800056781C20760700D08BE756781A383043A0
:1074900050701800226808304001121840205071C6
:1074A000D6E758011218FF32002D08DA70265778F7
:1074B0001C20374200D074E756781430BFE7567866
:1074C0001C20760700D06CE756781938DFE75801A2
:1074D0001218FF32002D08DA702657781C20374228
:1074E00000D05EE756782430A9E756781C2076074E
:1074F00000D056E756781838C9E75A685200520843
:107500005A604EE7981A0020FFFFFF8F0F230B40B1
:10751000026808335B0149B2D218002906DA8021DB
:1075200011710268D3180222DA717047402151713B
:107530000268D3180122F7E70F230B4000680833D5
:107540005B01C31849B29879002902DA8006C00F9E
:107550007047C006FBE70F230B40006808335B0150
:1075600049B2C3182022002900DB10225A7170474B
:107570000F2330B50B4002685C011219FF3249B28B
:10758000D579002912DA20210D420ED051710268FE
:1075900049181219FF32147A0C4206D0117202688F
:1075A00008335B01D31802221A7130BD10210D423D
:1075B000FBD05171026849181219FF32147A0C423B
:1075C000F3D01172026808335B01D3180122EBE794
:1075D00070B50C00056808346401655D1C266D06F5
:1075E0006D0F14D04D010B499B0449190D000A6120
:1075F0004A69094900260A406A616A69990C930B35
:107600009B030B436B6103681C198023637130007B
:1076100070BDC046981A0020FF3F00F070B50C0006
:10762000056808346401655D1C266D0713D00B4D99
:1076300049014A519B0469184A681D09084B0026F4
:1076400013402B434B604B689B0B9B034B600368C1
:107650001C1940232371300070BDC046981A0020C9
:10766000FF3F00F0094B19605A6809491140802218
:1076700092020A435A605A68920B92035A6040225F
:1076800003680020FF335A717047C046981A0020E3
:10769000FF3F00F00223026811780B431370026869
:1076A0009378022BFCD07047F0B5C44D85B02B68A1
:1076B0001E6801933378DB0900D1C9E0308CC04BE0
:1076C00080B2984703000400032008335B01F618DA
:1076D000F679F6B2064235D00121BA4A94460A003C
:1076E0006746A2403F6897433A0067463A60019A6E
:1076F0001268D218D071019A1219AE3212780A4269
:1077000020D0B14A0199147009686001595CAF4BEF
:107710008907890F1B18012900D084E05968890462
:10772000890C518059680901890C91805A68920B23
:1077300092035A60019AA31C1B01D3185B68A249EB
:107740001000984704210E420DD00123A3409D4A0A
:107750001068984310602200984B08321B68520151
:107760001B689B18D971082216421DD00123A34023
:1077700094490868984308602868A31801685B0169
:10778000CB18DA710319AE331B789B070CD58F4BDE
:1077900062019B181F22DB898B4913404B70230128
:1077A000C3180C709B6A9847102216421FD0012301
:1077B000A340844908689843230008602868083378
:1077C00001685B01CB18DA710319AE331B785B07D4
:1077D0000DD57D4A7D4B61015B1814705B680021FB
:1077E0001B019B0C53802301C318DB6A984720229E
:1077F00016425ED00123A3407249086898432300D3
:1078000008602868083301685B01CB18DA71031936
:10781000AE331B781B074CD56B490C70240104193F
:10782000236B984745E05968694F0901890C5180DD
:1078300088B259688904890C918059683940596027
:10784000002800D076E75B689B049B0C538071E7AF
:10785000348CA2B20292002A2DD1AB238027019A48
:107860005B000199D25A023BB68BCB5AB6B2134099
:107870003340029C01937F00564B6200D35A33423F
:1078800002D02A6812689383019A13420ED052499B
:10789000062C04D14D4B1B891B093B400B60230078
:1078A0002A682E339B009B58100098470134072C00
:1078B000E2D105B0F0BD019D5935FF35029A012195
:1078C0001A41DCB20A4200D1D0E01A00083251015C
:1078D0007118C81D0390C879297A2F78C0B2014069
:1078E0003940602738421CD05A01B6184022FF3672
:1078F000307A10420FD03272C03A1443374A947132
:1079000060221142D5D0019A1B01D318E0331B68C5
:107910003249100085E72022307A1042F0D03272CE
:10792000ECE71027384216D0039A1770019AD21844
:107930006132FF3212783A42BBD0244A59015218C0
:10794000526826499204920C0A80019A1B01D318AE
:10795000DC331B68DDE70327384241D002205A019F
:10796000B618FF36357A054215D0802530726D4243
:107970001A482C438471154CA21810325268920494
:10798000920C42808A0700D193E70D33019A1B01C4
:10799000D3185B68BCE70125307A2842F2D00F4843
:1079A00035728471094CA41862689204920C0280AA
:1079B00062681201920C8280E4E7C046380D002014
:1079C00041F00000480D00204C0D0020981A0020C6
:1079D000FF3F00F0745101003C0D0020400D0020DD
:1079E0000C27384242D05D017619FF36307A844642
:1079F0000820674607421FD0307202261E484019F1
:107A0000857E354202D0857EB54385768020404212
:107A100004431A4852018471019800688218D2798F
:107A2000920700D545E70C22114200D141E7019AA7
:107A30001B01D318D8336AE7307A8446042067469E
:107A40000742F0D0307202260B484019857A354241
:107A500002D0857AB5438572084852018471019835
:107A600000688218D279D207DDD522E701330135CB
:107A7000082B00D022E71CE7981A0020400D0020B8
:107A800000220123027043708270C37070470000AF
:107A90000023F7B504001700694A0D001360694A16
:107AA000216010602022684901AEC8690243CA61A2
:107AB00001227370F3700633337031001820634B6A
:107AC000B270984706233100337019205F4B9847F6
:107AD0006A46BB786946137006205D4B98475D4B3C
:107AE0000620984701222B7813432B70AB78DB07D5
:107AF000FCD40321584BDA788A43110002220A434E
:107B00000C21DA70DA788A43110008220A431F2117
:107B1000DA70524A13685B0B0B408B4200D105238D
:107B2000288D4F4E0B409B01304003432B8513683B
:107B30009B0C0B401F2B00D1023B1F20298D0340C3
:107B400081430B4307212B851368DB0D0B408B42D0
:107B500000D103232A8D0B4042491B030A407F2199
:107B600013432B852B783A780B40D20113432B70AB
:107B70007A782B787E390A40033192008B433A4859
:107B800013432B706862FB78012B4FD122680831B8
:107B900013898B431381802200215200334B984775
:107BA00022000021231D243202C39342FCD1210074
:107BB0000022A4311A605A609A60DA6010338B4256
:107BC000F8D11A7023002100A5331A700022013366
:107BD000AE311A701A7201338B42FAD1230022009F
:107BE0000021B833D43202C39342FCD121000022D9
:107BF0005531FF311A605A609A60DA601033994249
:107C0000F8D1AA235B00E2520233E25223000022A1
:107C100059336134FF33FF341A701A7201339C42B6
:107C2000FAD18022124B00201A60FEBD002BB2D187
:107C30000C2522681389AB4319431181ABE7C04679
:107C4000480D0020380D0020000400401D91000068
:107C500049900000C18F0000005000412460800066
:107C60003FF8FFFFFF8FFFFF981A0020990D0100DA
:107C700000E100E00220704770B50500064B984710
:107C80002B790524DBB2002B02D101221C002A71C2
:107C9000024B9847200070BD698A00009D8A000051
:107CA00037B505000A4B0201D4580A4B200098470B
:107CB000094B01AA41212800984703000020834274
:107CC00002D1019B9806C00F002323713EBDC04620
:107CD00048510100797C00004D87000070B5050017
:107CE000064B0201D458064B200098472800022278
:107CF0000C21044B98470023237170BD48510100AB
:107D0000797C00001187000070B50500064B020168
:107D1000D458064B20009847280004220721044B22
:107D200098470023237170BD48510100797C000001
:107D3000118700007FB504002A4B0201D6582A4B58
:107D400030009847294D01AA42212000A84702AAE5
:107D50003E212000A84703AA3F212000A847002376
:107D6000337114336343224DEB18DB68002B03D0CF
:107D70000123019A9A4301920221019B0B4202D0F6
:107D800020001C4B9847029B5B0703D50021200075
:107D9000184B9847029BDB0603D502212000154BA8
:107DA0009847029B1B0706D52000134B98470021DC
:107DB0002000104B9847029BDB0705D520000E4B97
:107DC000984720000D4B9847039BDB0708D51423E9
:107DD0006343ED18EB68002B02D12000084B984755
:107DE0007FBDC04648510100797C00004D870000EE
:107DF000540D0020CD9A0000DD7C0000FD9A0000AB
:107E0000097D0000F7B5142504004543314B0201FC
:107E10005B19D960304B0E00D758304B380098476B
:107E20006A462F4B0221200098470C23009A9A4360
:107E30000092002E39D0274BEB58002B03D0012B9A
:107E400031D001202EE004231A430092009A02212F
:107E50002000244DA8476A460A212000204B98475D
:107E6000002805D10122009B0A211A432000A847BF
:107E700020001D4B9847002338003B71174B984753
:107E800001AA174B0321200098470422019B002ED2
:107E90001DD013430193019A03212000114B9847F1
:107EA00000203871FEBD0823CEE7022120000D4DD1
:107EB000A8476A460A212000094B98470028DAD1D2
:107EC0000123009A0A219A432000A847D3E793434D
:107ED000E0E7C046540D002048510100797C0000C5
:107EE0004D87000011870000097D000073B5114B1C
:107EF0000E001500032101AA040098479023019A5F
:107F00009A431300002E11D10193002D03D01023AA
:107F1000019A13430193019A03212000064B9847CD
:107F20000020064B2401E358187176BD80221343CC
:107F3000EAE7C0464D870000118700004851010064
:107F4000F0B50400244B0201D35885B0019318000A
:107F5000224B0D00984703AA02212000204FB8476A
:107F600014213023039A61439A43130003921D4A5C
:107F700052185268002A05D01022002D00D120226C
:107F8000134303930C23039A9A4313000822002DF2
:107F900000D1042213430393039A02212000124EBE
:107FA000B04703AA03212000B8470323039A9A434A
:107FB00013000222002D00D1012213430393039AE0
:107FC00003212000B047142300205C43054BE550FB
:107FD000019B187105B0F0BD48510100797C00008B
:107FE0004D870000540D002011870000F0B53A4B7A
:107FF0000201D35885B0040001931800374B0D00DF
:108000009847022D2DD0032D4DD00220012D26D1D1
:1080100003AA0221324B20009847F323039A314DE3
:108020009A431300C0221A4314236343E918496892
:108030000392002906D059592023002900D0103B73
:10804000134303932000284B039A022198471423DB
:108050005C43133B2D19AB600020019B187105B0E8
:10806000F0BD03AA08211E4F2000B8470123039A40
:1080700008219A4320001C4E0392B04703AA29000E
:108080002000B847C023039A29009A431300032213
:1080900020001A430392B04714236343114CE418A1
:1080A0000023A360D8E703AA0D4E08212000B047A3
:1080B0000123039A08219A4320000B4D0392A847FD
:1080C00003AA02212000B047C323039A02219A4346
:1080D00020000392A847DFE748510100797C0000A7
:1080E0004D870000540D00201187000073B5040077
:1080F000184B0201D558184B28000E00984701AACA
:1081000006212000154B9847002822D10C22019B04
:108110009343012E06D0022E0AD00422134301936A
:10812000130003E00822134301930923262103E0EF
:10813000134301933D21132314206043084A12186E
:10814000117453740621074B019A200098470023AD
:108150002B7176BD48510100797C00004D870000ED
:10816000540D002011870000F0B50400294B0201D6
:10817000D35887B001931800274B0D00984705AAE4
:10818000264B022120009847059B02930C23029A5C
:108190009A433433042D00D08023142613430593CF
:1081A000059A66432A4302211D4D20000592A847E7
:1081B0001C4B04219E19327C2000A847FA201A4B40
:1081C0009847164B05AA40212000984700232027F6
:1081D0000393059B3B4212D1727C04212000A847E7
:1081E000FA20114B98470D4B05AA402120009847D3
:1081F000059B1F403D006F1EBD416B1C0393029AFF
:1082000002212000064B98470023019A039813711E
:1082100007B0F0BD48510100797C00004D87000097
:1082200011870000540D0020ED8900001423434302
:108230000D48C0188068002809D00120002905D009
:1082400000220223C80F8B42504140007047012991
:1082500005D0022905D00329F8D10720F6E705202B
:10826000F4E70620F2E7C046540D00201423F0B5D1
:1082700043431700454A0E00D1180400886889B0AE
:10828000002817D04968424D00290ED09B58002B7A
:1082900004D008212000A847386003E00421200012
:1082A000A8473060002009B0F0BD04212000A84795
:1082B0003060EEE70825374B2201D35802931800AF
:1082C000354B984705AA0221344B20009847059B5F
:1082D000022101932B4003930423019A2000AA4317
:1082E0001A432F4B05929847FA202E4B984706AA1F
:1082F00040212A4B200098470322069B022113406D
:10830000069305AA254B200098470423059A0221CD
:108310009A432A43224B200005929847FA20214B8A
:10832000984707AA40211D4B200098470323079D2B
:1083300006991D4020001C4B079598471A4B30604A
:1083400029002000984705AA38600221134B20001D
:1083500098470421019A059B0A4211D00B430399C7
:108360000593059B082200290DD013430593059A18
:108370000B4B0221200098470023029A137191E7CA
:1083800004229343EBE79343F0E7C046540D0020EB
:108390006981000048510100797C00004D87000090
:1083A00011870000ED8900002D820000F0B5060065
:1083B00091B005934D4B04920201D35806AC039340
:1083C00018004B4B0F00984722000621494B300004
:1083D000984740220025069B06211A433000464B51
:1083E00006929847039B1D71052F42D0072F54D04A
:1083F0000220AF423BD143232370313B6370A37013
:10840000E37001332371049B05995D0480236D0F94
:10841000AD00AA1C134363716B461B7C2A00A37139
:10842000049B08A81B12E371344B98471021FF23CB
:1084300004AA52185355142204A9EE3B5B185A554E
:108440001223EA325B185A5513235D3A5B185A55CA
:108450000398274B984703232A00019321003B00F0
:108460000C3200973000264CA047039B1F7111B0BF
:10847000F0BD1F4B03989847220009211D4B300087
:10848000984740220921069B1A4306921A4B300056
:108490009847039B28001D71E9E7154B03989847FF
:1084A00022003900134B300098471022069B3900F8
:1084B0001A433000104B06929847220006210D4BBC
:1084C000300098470122069B06211A4330000A4BD0
:1084D0000692984722003900064B30009847102337
:1084E000069A39009A430692D0E7C04648510100E7
:1084F000797C00004D87000011870000150D0100F8
:10850000B9870000142201214243284B4942F0B5AB
:10851000D1509B18262204001A74254E223A5A7410
:1085200003019B5985B001931800224B9847224DB7
:1085300001220C212000A84703AA204F0921200076
:10854000B8470722039B09211A4320000392A8473A
:10855000E4220A2120000392A847E2220E212000F3
:108560000392A847FE220F2120000392A84703AAE6
:1085700006212000B8472023039A06219A432000B1
:108580000392A8472301F618B6680021B3692000BA
:108590009847F3690021200098470F220B21200003
:1085A000A8470020019B187105B0F0BD540D0020B4
:1085B00048510100797C0000118700004D870000C0
:1085C000F0B5354B91B0070007910392984701250C
:1085D00000285BD105954322002606AB1A722F4B6B
:1085E0003A01D358049318002D4B9847059B01225C
:1085F000019308A933002B4C00963800A047059B37
:1086000005000193032332000093310008AB254C91
:108610003800A047092306AA9B185C781A78240220
:10862000039B14431C600723240B1C40A400053B40
:1086300005430193231D069500931A4D08AB3200A4
:1086400031003800A847069D049B05431E71B542C2
:108650001CD10F22039B1B681A40012A08D11B134F
:108660000632134204D138000B4B9847B042B2D0C7
:108670000F22039B1B681A40012A02D15B045B0F87
:1086800007D0220008A90798074B9847280011B087
:10869000F0BD1500FAE7C046A17C0000485101007A
:1086A000797C0000B9870000150D010073B5142214
:1086B0000400624311480D0083185960104B2101DA
:1086C000002D07D05B189B6811589B6920009847C4
:1086D000002076BD5E580B4B3000984701AA02215E
:1086E000094B200098473023019A02219A43200029
:1086F000064B019298473571EAE7C046540D0020B9
:1087000048510100797C00004D870000118700006E
:108710001FB56B4619705A700301094801A9C018AA
:10872000436808480B8002234B806B464B60002354
:108730000B724B728B72044B984705B000BDC0465C
:1087400048510100441700209D590000F0B587B042
:1087500002AB19700301144803ACC01802AB63608C
:10876000002301274568114EADB223726372A372D4
:10877000210030000E4B0192258067809847002829
:1087800010D102AB636020726072A07221003000D1
:10879000084B258067809847002803D102AB1B78DF
:1087A000019A136007B0F0BD485101004417002042
:1087B000B159000089590000F0B51F0003011748A6
:1087C00085B0C0180023456801ACADB20A9E258073
:1087D0006280616023726372A3729A4208D00B9B1D
:1087E0000F4821009B070FD50E4B9847002809D151
:1087F000002325806680676023726372A3729E42A5
:1088000004D1002005B0F0BD074BEEE7210004487D
:10881000064B98470028F5D1F3E7C04648510100C0
:10882000441700209D590000B159000089590000EB
:1088300000207047704701207047012070470000FA
:1088400070B5074B04009847064B07489847060049
:10885000064B1D68064B984726606560200070BD7A
:10886000698A00002566000050170020E4160020E9
:108870009D8A0000704700207047704700207047B5
:1088800000207047002070470020704770477047F5
:1088900070470000F0B5C9B0039280220291D20067
:1088A00000211F4B1F4898471F49204B08A8984795
:1088B00008AA082100201E4B98470024029B9C42D6
:1088C00006DB80211748C9001A4B984749B0F0BD14
:1088D0000398A30007AA06A9C058174B9847174F3B
:1088E0000798B847164E1749B047174DA847049048
:1088F00005910698B8471349B047A847049A059BC5
:1089000000900191114D124908A8A847A11CC90067
:1089100009B208AA0020064B98470134CEE7C046AA
:10892000990D0100E4120020C4510100710E0100F4
:10893000D19300004D4700007195000011F3000035
:1089400081F0000000007A44290C01002D0E010086
:10895000D751010070B50A4A0A4C9369A16825698C
:108960000B43A360084B9361002D04D1E268A36818
:108970009343A36070BD28686B689847AD68F3E7C0
:1089800000040042AC000020FFFF0F0F0223054A45
:10899000116A0B4313620123034A137011781942C1
:1089A000FCD17047000400400004004270B5094B40
:1089B00000209847FA21084C89000500A047074B82
:1089C000074918602800A0470522064B1860064B8F
:1089D0001A6070BD398F0000E9EC0000C000002073
:1089E00040420F00C400002010E000E030B58024B9
:1089F0000021074B64021A68064B013800D230BDD3
:108A0000002AFAD05A6099601D682542FCD0F4E72C
:108A1000C400002010E000E030B580240021074BA6
:108A200064021A68064B013800D230BD002AFAD021
:108A30005A6099601D682542FCD0F4E7C000002010
:108A400010E000E007B5802201AB1A700A785A7076
:108A50004A789A708A781900DA70014B984707BDF6
:108A60001D91000070470000094B196800290BD1C7
:108A7000EFF31080074A002805D172B6BFF35F8F6D
:108A800005490870012111701A6801321A60704797
:108A9000680D00206C0D0020C8000020084B1A68EB
:108AA000013A1A601B68002B09D1064B1B78002B7A
:108AB00005D00122044B1A70BFF35F8F62B6704776
:108AC000680D00206C0D0020C80000201023024912
:108AD000CA681A42FCD07047000800400222F8B56C
:108AE0000026094D094C2B68094F13432B60A284C3
:108AF000B847AB68E3626B68A362A684B8472B688B
:108B000030009BB2A384F8BD700D00200008004027
:108B1000CD8A000070B5082806D806F0C7F8080509
:108B2000053131120B1529000024200070BD174BB0
:108B30001C69FAE7164B174C1B6A9B059B0FDC4020
:108B4000F3E7124B5C69F0E7104D00242B689B079C
:108B5000EBD5114B98472B685B0714D52B689B0608
:108B600011D420000D4B9847AC68A4B24443DCE715
:108B70000B4B00241B785B07D7D5044BDC68D4E78C
:108B800080242402D1E7074CCFE7C046700D0020B7
:108B90000008004000127A00CD8A000065900000B5
:108BA00050080040006CDC0270B58478027845788B
:108BB000012040260540204080240849AD010B6A71
:108BC000C001B3432B43A3430343032002400448A3
:108BD0001202034013430B6270BDC0460008004000
:108BE000FFFCFFFF10B5027A438992069B059B0D9F
:108BF000120C1A43174B5A60C179827984880A4350
:108C0000418821430A4341780478C9010A431A6024
:108C1000042C0DD1027B018A92060A43C1890E48B9
:108C2000090401400A439A601A6814431C6010BD8D
:108C3000202CFCD1027B018A92060A43C189064896
:108C4000090401400A439A601968044A0A431A60F9
:108C5000EDE7C046700D00200000FF032404000073
:108C600010B5082806D806F021F81405050C0E1AD0
:108C700007202300172010BD0223104A116A0B435E
:108C800013620020F7E702230C4A91690B439361BA
:108C9000F7E70223094A118A0B431382F1E7022303
:108CA000064A918A0B439382EBE7054B9847E2E72C
:108CB0000223044A11780B431370E2E700080040D6
:108CC000DD8A000044080040C2231E22F0B5484956
:108CD000DB0048488B604368002593431A00042357
:108CE0001343436005238DB007AC23700191E8B2B4
:108CF0002100414B01359847252DF8D10023202232
:108D00006380A371E37163703C4B22701B689B0E00
:108D10003F2B00D1203B2372072323730A23002516
:108D20000126E381364B20006381FF3BA380354B56
:108D30002382354B984703A8344B867005704670E4
:108D40009847334B06209847324B9847062304AC8C
:108D5000210023703000304B6660657065722672AA
:108D600098472E4F3000B84703232370102321006B
:108D700063600220284B6570657226729847022056
:108D8000B847062323707D23210063600320224B14
:108D900065702572657298470320B84707232370D2
:108DA00030232100636004201B4B657065722672BE
:108DB00098470420B8471A4B98471023019AD26865
:108DC0001A42FBD00025174B07221D725D729D725F
:108DD000DD72012321006360237228000E4B227094
:108DE0006570657298472800B8470DB0F0BDC04661
:108DF00000080040004000414990000024608000CD
:108E0000FF01000080BBFFFFE58B0000A98B000085
:108E1000618C0000358E0000558E0000F98E000038
:108E2000DD8A000000040040014B5878C0097047FB
:108E3000000C00400823054A91690B43936101230C
:108E4000034A137011781942FCD1704700040040A6
:108E5000000C0040F8B50C784B78240206000500A1
:108E60000443002B02D08023DB021C434B7A002BEF
:108E700002D080231B031C434B68012B12D95D1EBB
:108E80001D400222002D06D01D02802335439B0287
:108E900007E0013552009A42FBD380232D0235436F
:108EA0005B031C430B7A002B02D080239B031C43E3
:108EB0000C4FB8470028FBD10B4B98470B4B1E704B
:108EC000B8470028FCD10A4B9D601D00B847002818
:108ED000FCD180226B68520213401C436C60054B2E
:108EE0009847F8BD298E0000698A0000080C0040F0
:108EF000000C00409D8A000070B50500094CA04799
:108F00000028FBD1084B9847084B1D70A04700284C
:108F1000FCD18023064A5B0251680B435360054B2A
:108F2000984770BD298E0000698A0000040C00403B
:108F3000000C00409D8A0000F7B50700184EB047AE
:108F40000028FBD1174B9847174B1F700193B04770
:108F50000028FCD1154D164B6868C004C00E984718
:108F60000400019B1F706B68DB02DB0F0193114B48
:108F70001F70B0470028FCD1AD680F4B9847019B8C
:108F80002D022D0C002B08D1012D04D92000290021
:108F90000A4B984704002000FEBD0135EC40FAE77B
:108FA000298E0000698A0000040C0040000C00407B
:108FB000158B0000080C00409D8A0000E9EC0000C1
:108FC00010B50400064B9847064B074A1C708023D7
:108FD0005188DB010B435380044B984710BDC046BA
:108FE000698A0000020C0040000C00409D8A0000CD
:108FF00010B504000E4B98470E4B0F4A1C700F4BD8
:109000000F4C588859880005114059805988000F25
:109010002140598011008022D2015C881442FCD189
:109020005A8800020A4002435A80064B984710BDF6
:10903000698A0000020C0040FFF0FFFF000C0040B6
:10904000FFBFFFFF9D8A000010B50C78034B240280
:1090500004439847024BA4B25C8010BDF18F00001E
:10906000000C004010B50400064B9847064B1C70DE
:10907000064B5C88064B2405240F98472000054BBF
:10908000984710BD698A0000020C0040000C0040A7
:109090009D8A0000398F0000D37830B5002B35D180
:1090A0001478802C03D0802324065B0223430225FE
:1090B0005478AC4306D19478002C24D18024A402A7
:1090C000234341605478013C012C01D8124C2340C9
:1090D000A0248DB2E4052C431C438462D0240D0CE3
:1090E00024062C431C438462D478002C0AD15B03F1
:1090F00003D59378012B0CD181615378013B012B6F
:1091000000D8816030BDC024E402D9E7416000236B
:10911000DEE74161F1E7C046FFFFFBFF10B503004A
:109120000A004409C1090020814202D10449E0013A
:1091300040181F210B401E399940024B984710BD23
:1091400000440041999000007047000010B5054BA5
:109150009847054B9847054B9847054B9847054B53
:10916000984710BDC98C0000658A00008D890000F9
:109170005D51000049910000FEE7000021482249AE
:1091800070B5884204D00023204CCA18A24232D3C2
:1091900000211F4B1F4A934231D3FF211E4B1F4A10
:1091A0008B43936002220C25082430261C4B1D485B
:1091B0005A62C378FC398B431343C370C378AB4303
:1091C0002343C370184B987BB043060020203043E4
:1091D0009873987BA84304439C73987B884302430D
:1091E0009A738023114A51680B435360104B984780
:1091F000104B9847FEE7C55804331560C5E702C316
:10920000C9E7C046CC5F010000000020340B0020FD
:10921000380B00200C1C00200040000000ED00E096
:10922000FC700041005000410048004100400041F6
:10923000CD0C01006D440000054B020019680029A7
:1092400001D104491960186882181A607047C04635
:10925000880D0020102C0020C380053B0160828017
:1092600004211BB2053AC384C38312B20300828473
:1092700082830122018441840B4938331A705A7069
:1092800041640A490023C163010050310363036450
:10929000036143618361C3640B7043650B72044BCC
:1092A000186010007047C046EF8B5E00FFFFFF00A4
:1092B0008C0D0020014B1860012070478C0D0020A0
:1092C000054B02681B681A630421425E9A860621D8
:1092D000425EDA867047C0468C0D0020F0B589B03A
:1092E000079306919923D62809D027D84D33B5285E
:1092F00005D0583BC42802D06A33B02825D1334961
:109300000968888E002817D0C608400700D00136AB
:1093100092B204920D6B36228A5E53437343ED186A
:10932000049B0193294B04991A68019B5B1A362010
:10933000115E9BB28B4211DB09B0F0BD8423E4289F
:10934000DDD004D81633DC28D9D00300D7E7942326
:10935000F628D4D0133BFC28D1D0F6E76B461C8B03
:10936000938E2F000393AD19BD4203D1019B0133AE
:109370009BB2D6E73B780293230008339BB2059358
:10938000039B002B1AD0114B029A9C466B4604217A
:10939000595E012320B21A4212D063461B68079A15
:1093A0001B689847029B01345B080293039BA4B29D
:1093B000013B9BB20393059B9C42E1D10137D3E76C
:1093C00063461B680E9A1B68EBE7C0468C0D0020B5
:1093D000F0B50D00040085B00390571C7B1E187873
:1093E000002801D105B0F0BD144B1B680A2803D139
:1093F00004241C5F0137F1E70422995E34269A5F4A
:109400001219914208DC1A0039321278D98E52B200
:1094100052185519039C2DB21A6C21000092DB6B77
:109420002A00074EB047054B1A68130038331B78E3
:10943000928E5BB29B181C1924B2DBE78C0D0020C6
:10944000DD9200004000430F0520002B02D08B422C
:1094500000DC0020704700000F4B10B519680F4B5F
:1094600004009847002814D10D4A63005B0F9B1835
:109470000C4A9B00D35822039B059B0D920D9342EF
:1094800007D3A205920D934202D2630100D40530A6
:1094900010BD0520FCE7C046FC51010045940000CA
:1094A000FFFFFF3FF85101001C23F0B5434387B095
:1094B0000592284A0490D3180393274B01919942AF
:1094C00000DD019300263500039F0296234B049A8A
:1094D0009B5C9D420DDB059B002B07D0029B039AF2
:1094E0009B009B580193019A059B1A60029807B054
:1094F000F0BDC0223C681206A30F9B0793421DD00B
:1095000032232403A40D5C43002C17D02000144BFD
:109510009847002812D03B689A0F9B05012A10D16A
:109520009A0D104B5343019AA24207DB0E4A934215
:1095300000DD13009E4201DA1E000295013504375A
:10954000C4E79A0D0A235343084A934200DD1300EF
:109550006343E8E7940D0020204E0000900D0020AA
:109560003788000090D0030000E1F5058813000063
:10957000322370B50D000103890D59431160002994
:1095800001D1296070BD820F80050F4B800D012A2B
:1095900010D1FA220D4C9200604350430C4CA04273
:1095A00000DD2000504398470A4B984200DD180028
:1095B0002860E7E70A24444307489847030020004F
:1095C0009C42F1D91800EFE7E9EC000090D00300CD
:1095D000A08601008813000000E1F505F0B585B014
:1095E0001C000AAB1F780E001500002F29D11C2388
:1095F0005843224BC3580393220029000398204B61
:109600009847002220682D681E4B6843C40F834290
:109610005441A3060193039B01379B0F1A4C012B66
:1096200016D1E0233D07DB051D401849184B98472C
:1096300080020440019B25431D430020356005B096
:10964000F0BD144B03AA1968134B98470700D3E7E2
:109650000A212800114B9847800204400C4B280037
:109660000A219847E0238505AD0D2C43DB053D0716
:109670001D40019B1D432543DFE7C046940D00209C
:1096800071950000BFE1E40000FC0F0090D00300E2
:10969000FDED0000CC000020A9940000E9EC0000E2
:1096A0007FB50F4B040019541C2343430D48C018C9
:1096B00000238B420FDB03AA0B4920000B4B98477A
:1096C00002AA01A903980A4B9847029A019920001F
:1096D000084B98477FBD9D00565901334651E8E736
:1096E000900D0020940D0020204E0000A994000051
:1096F00071950000358800000020704710B5074BB9
:1097000002019B189B6804001B689847002804D13D
:10971000034B002B01D02000984710BD4851010099
:109720000000000010B5034B02019B189B685B69A9
:10973000984710BD4851010010B5034B02019B181A
:109740009B689B69984710BD4851010010B5034BB9
:1097500002019B189B685B6A984710BD4851010045
:1097600070B504000501084840198068C56A2000EA
:10977000A8470648E401001929300078431E9841A3
:1097800001234042184370BD48510100F80D0020EC
:1097900070B54024094DC601AB195A7821435201D6
:1097A0000A43715D064C09020A4399780023490275
:1097B0000A4392B21900A04770BDC046F80D0020C0
:1097C00061970000114B70B51C681149C301002C52
:1097D00010D1CC186278CB5C52011B021343442297
:1097E0001A43A3785B021A4392B20A4B00210A4C37
:1097F000A04770BD4126CD186A782403CB5C520186
:1098000034431B0222431A43AB78EBE7FC510100BF
:10981000F80D0020F851010061970000002802D0E7
:1098200013000A001900531F072904D10020062A3B
:1098300007D0064803E00020062900D10448022B87
:1098400002D880231B0618437047C046B80B00009F
:10985000DC050000194BC00130B51C188A001BD56F
:109860000222A5682A43A2601C180A0119D5802289
:10987000A56812012A43A2601C184A0115D580224E
:10988000A568D2012A43A26018188A0111D50422C2
:1098900083681A43826030BD0222A56895432A007E
:1098A000E1E7074AA5682A40E5E7064AA5682A4095
:1098B000E9E7042382689A438260ECE7F80D002010
:1098C000FFF7FFFFFFBFFFFFF8B500220023154E93
:1098D000C501040070190261436100230779C37157
:1098E00001718F4203D0022F02D10E2916D1F8BD8B
:1098F0000E2F11D10E29FAD100220B4B110020009E
:109900009847735D012B02D12000084B9847002136
:109910002000074B9847EAE70E29EDD00229E6D14F
:10992000EAE7C046F80D0020358800007588000081
:109930004D970000F0B5204BC70189B0DB190393A8
:109940000023039A0C0093630133009305AA06AB2E
:1099500004A91A4E0500B047002829D1069A002C08
:1099600003D1039BDB6B93421FD0134B0599DB198B
:1099700019635A63DA631049049AC95D07925A78E9
:109980000902520111439B780D4A5B020A431A43B4
:109990000C4C92B207AB00212800A047041E04DB48
:1099A00006212800084B98470024200009B0F0BD8C
:1099B00001246442F9E7C046F80D0020DD9500005F
:1099C0004210000061970000C998000010B5044BD8
:1099D00002019B189B68034A9B680349984710BD86
:1099E00048510100B80D0020B40D002010B5064B01
:1099F000C1015A18C95C054B04011B199B685278B8
:109A00001B6A984710BDC046F80D00204851010060
:109A100070B5094CC301E4186378050059425941F7
:109A2000C9B26170054B98472800054B9847082339
:109A3000A2681343A36070BDF80D00207B8800006E
:109A4000ED990000F8B5FF252D020C0401262940F0
:109A5000A94207D01F21002706251140CE0F8D42B5
:109A60007E41F6B20C49C00152040D18520C144349
:109A70002A00F6033443AC65069C7432013414703A
:109A8000069A5C30081892001900044B984701238D
:109A900048352B70F8BDC046F80D0020150D0100AB
:109AA000C201002008498B181B79834208D0525C00
:109AB0000130002A05D1023BDBB29842804140428E
:109AC00070470E3BF8E7C046F80D002070B5094B13
:109AD000C001002905D107251C18A27801322A40AF
